:020000040800F2
:10000000800F0020AD060008C9040008CB040008DA
:10001000CF040008D3040008D70400080000000043
:10002000000000000000000000000000DB040008E9
:10003000DD04000800000000DF040008E1040008FF
:10004000C7060008C7060008C7060008C70600085C
:10005000C7060008C7060008C706000827020008F0
:10006000C7060008C7060008C7060008C70600083C
:10007000C7060008C7060008C7060008C70600082C
:10008000C7060008C7060008C7060008C70600081C
:10009000C7060008C7060008C7060008C70600080C
:1000A000C7060008C7060008C7060008C7060008FC
:1000B000C7060008C7060008C7060008C7060008EC
:1000C000C7060008C7060008C7060008C7060008DC
:1000D000C7060008C7060008C7060008C7060008CC
:1000E000C7060008C7060008C706000800F002F8A7
:1000F00000F05EF80AA090E8000C82448344AAF164
:100100000107DA4501D100F053F8AFF2090EBAE861
:100110000F0013F0010F18BFFB1A43F0010318473B
:10012000401600006016000010F8013B0A4413F06E
:10013000030408BF10F8014B1D1108BF10F8015B44
:10014000641E05D010F8016B641E01F8016BF9D133
:10015000002D15D010F8014B03F00C030C2BA1EB74
:1001600004040ABF10F8013BA4EB8314A4EB03249E
:1001700005F1010314F8016B5B1E01F8016BF9D561
:10018000914238BF10F8013BD1D3704700230024BF
:1001900000250026103A28BF78C1FBD8520728BF97
:1001A00030C148BF0B6070471FB51FBD10B510BDF3
:1001B00001F09EFA1146FFF7F7FF00F009F801F091
:1001C000BCFA03B4FFF7F2FF03BC01F0C1FA000070
:1001D00001F0DAF901F002FA00F0FEFE01F097F802
:1001E00001F050F9002405E04FF47A7001F032FA82
:1001F000601CC4B2012CF7DB00F01AFF00F0D7FF3F
:10020000A64801F0A6F8FF20A54908700F2000F0CD
:1002100038FF102000F05FFF01F008F90020A1492D
:10022000086000BFFEE770B59E48006808B901206D
:1002300000E000209B4908604FF0C40000F021FF5F
:10024000822000F048FF322001F004FAC42000F0C0
:1002500018FF832000F03FFF322001F0FBF9C1209E
:1002600000F00FFF00F064FF0546C22000F009FF18
:1002700000F05EFF04468A480078042879D007DC45
:10028000E8B101287DD0022875D0032874D19AE006
:10029000052872D0062871D0FF28F7D13B2D0CDD40
:1002A000552D0ADA682C08DDA22C06DA7E4801F00A
:1002B00050F800207A49087000E0C9E0C8E0982DA5
:1002C0000CDDB12D0ADAA22C08DDDC2C06DA774829
:1002D00001F03FF801207249087051E0982D0CDDC3
:1002E000B12D0ADA282C08DD622C06DA704801F0FC
:1002F00030F802206A49087042E0692D0CDD822D39
:100300000ADAA22C08DDDC2C06DA6A4801F021F8B2
:1003100003206349087033E0692D0CDD822D0ADA71
:10032000282C08DD622C06DA634801F012F804205C
:100330005B49087024E03C2D0CDD552D0ADAA22C17
:1003400008DDDC2C06DA5D4801F003F8052054498D
:10035000087015E03C2D12DD552D10DA282C0EDD2D
:10036000622C0CDA564800F0F4FF06204C49087065
:1003700006E039E005E015E069E046E056E067E0B8
:1003800066E0282D0CDD412D0ADAC82C08DDEB2CA7
:1003900006DA454800F0DDFF00204149087000E022
:1003A00056E055E0282D0CDD412D0ADAC82C08DD79
:1003B000EB2C06DA3C4800F0CCFF002038490870EE
:1003C00000E045E044E0282D0CDD412D0ADAC82C80
:1003D00008DDEB2C06DA344800F0BBFF0020304982
:1003E000087000E034E033E0282D0CDD412D0ADAFE
:1003F000C82C08DDEB2C06DA2B4800F0AAFF002001
:100400002749087000E023E022E0282D0CDD412D73
:100410000ADAC82C08DDEB2C06DA234800F099FF35
:1004200000201F49087000E012E011E0282D0CDDCB
:10043000412D0ADAC82C08DDEB2C06DA1A4800F048
:1004400088FF00201649087000E001E000E000BFCE
:1004500000BF45F25551084601F054F8C42000F0A1
:1004600010FE812000F037FE0F2000F00AFE102061
:1004700000F031FE4FF6FF7000EA042606F47F41DB
:10048000104800F0ACFA4FF47F4020EA06010D4816
:1004900000F0A7FA022000F096FD70BD00000020D9
:1004A000F008002090012142F1000020E20100202C
:1004B000D3020020C4030020B5040020A6050020BC
:1004C00097060020000C0140704700BFFEE700BF08
:1004D000FEE700BFFEE700BFFEE7704770477047CA
:1004E0007047000000210020674A126842F4803201
:1004F000654B1A6000BF644A126802F40030491C60
:1005000010B9B1F5A06FF6D15F4A126812F4003F3E
:1005100001D0012000E00020012842D15B4A12688E
:1005200042F01002594B1A601A46126822F0030278
:100530001A601A46126842F002021A60524A526861
:10054000514B5A601A4652685A601A46526842F431
:1005500080625A601A46526822F47C125A601A4627
:10056000526842F4E8125A601A46126842F08072E9
:100570001A6000BF444A126812F0007FFAD0424A63
:10058000526822F00302404B5A601A46526842F009
:1005900002025A6000BF3C4A526802F00C02082A6C
:1005A000F9D1704710B5FFF79DFF10BD10B5364863
:1005B000006840F00100344908600846406834494A
:1005C00008403149486008460068324908402E49D1
:1005D00008600846006820F48020086008464068EB
:1005E00020F4FE0048604FF41F008860FFF7DAFF38
:1005F0004FF000602849086010BD10B500210020B0
:100600000022214B5B6803F00C0121B1042906D0C4
:10061000082928D107E0214B214C236027E01F4BFC
:100620001F4C236023E0184B5B6803F47010164BDB
:100630005B6803F48032022303EB904022B9194B2C
:100640004343174C23600DE00F4B5B6813F4003FEE
:1006500004D0144B4343124C236003E00F4B43433D
:100660000F4C236003E00D4B0D4C236000BF00BF17
:10067000054B5B68C3F303130B4CE15C084B1B6831
:10068000CB40074C236010BD001002400020024008
:100690000000FFF8FFFFF6FE08ED00E000127A0010
:1006A000F408002000093D00F808002009488047B0
:1006B00009480047FEE7FEE7FEE7FEE7FEE7FEE744
:1006C000FEE7FEE7FEE7FEE704480549054A064B5C
:1006D00070470000AD050008ED000008800900200B
:1006E000800F0020800B0020800B00203149014347
:1006F000314A1160704770B5002100230F22C47881
:100700000CB32D4C246804F4E064C4F5E064210AC1
:10071000C1F10403CA40447804FA03F18478144018
:1007200021430901254C0678A155047804F01F05E2
:100730000124AC4005786D114FF0E02606EB8505ED
:10074000C5F8004109E0047804F01F050124AC401D
:100750001B4D0678761145F8264070BD194A0A40AF
:100760000243154B1B1F1A60704739B1124A121D04
:1007700012680243104B1B1D1A6006E00E4A121D40
:10078000126882430C4B1B1D1A607047042808D165
:100790004FF0E021096941F004014FF0E0221161BE
:1007A00007E04FF0E021096921F004014FF0E02259
:1007B000116170470000FA050CED00E000E400E074
:1007C00080E100E080FFFF1F10B50446CA48844264
:1007D00008D10121042000F023FB0021042000F0B7
:1007E0001FFB46E0C548844208D10121082000F0E3
:1007F00017FB0021082000F013FB3AE0C0488442B8
:1008000008D10121102000F00BFB0021102000F086
:1008100007FB2EE0BB48844208D10121202000F0D4
:10082000FFFA0021202000F0FBFA22E0B6488442C3
:1008300008D10121402000F0F3FA0021402000F00F
:10084000EFFA16E0B148844208D10121802000F07F
:10085000E7FA0021802000F0E3FA0AE0AC48844285
:1008600007D10121801500F0DBFA0021A01500F06E
:10087000D7FA10BD10B50121084600F0D1FA0021C9
:10088000012000F0CDFA10BD2DE9F041024600250F
:100890000026002000230024002791F803C00CF05C
:1008A0000F0591F803C01CF0100F03D091F802C09F
:1008B0004CEA050591F800C0BCF1000F31D0146876
:1008C00000202BE04FF0010C0CFA00F3B1F800C04F
:1008D0000CEA03069E4220D183004FF00F0C0CFA65
:1008E00003F7BC4305FA03FC4CEA040491F803C087
:1008F000BCF1280F06D14FF0010C0CFA00FCC2F835
:1009000014C00AE091F803C0BCF1480F05D14FF0C4
:10091000010C0CFA00FCC2F810C0401C0828D1D30E
:100920001460B1F800C0BCF1FF0F34DD5468002042
:100930002EE000F1080C4FF0010808FA0CF3B1F8B2
:1009400000C00CEA03069E4221D183004FF00F0C39
:100950000CFA03F7BC4305FA03FC4CEA040491F8D3
:1009600003C0BCF1280F05D100F1080C08FA0CF8FF
:10097000C2F8148091F803C0BCF1480F07D100F110
:10098000080C4FF0010808FA0CF8C2F81080401C5F
:100990000828CED35460BDE8F0814FF6FF71018086
:1009A000022181700421C1707047024600209368C3
:1009B0000B4201D0012000E000207047014688680A
:1009C00080B2704702460020D3680B4201D001205C
:1009D00000E0002070470146C86880B2704701619E
:1009E0007047416170470AB1016100E041617047A1
:1009F000C16070474FF480320A4382618161826135
:100A000082698269704702460020424B18684FF69F
:100A10008073184040EA021008433E4B186070474C
:100A20003D49C8617047F0B50A4600230024002103
:100A3000002500F00046B6F1004F02D1354EF169B5
:100A400001E0344E7168C0F3034583B200F44016F0
:100A5000B6F5401F08D121F070612E4E766826F061
:100A600070662C4F7E6012E000F48016B6F5801F91
:100A700006D1032606FA05F4A14341F0706106E0B1
:100A8000460D360103FA06F6B14341F0706122B11A
:100A9000460D360103FA06F6314300F00046B6F182
:100AA000004F02D11B4EF16101E01A4E7160F0BDA2
:100AB00030B500228B071C0F0F2303FA04F2154BED
:100AC00008338C1053F824309343124C08348D10A3
:100AD00044F8253023468C1053F824308C07240F1B
:100AE00000FA04F423430B4C08348D1044F82530ED
:100AF00030BD0A490860704700080140000C014001
:100B0000001001400014014000180140001C014089
:100B1000002001400000014000002042DC00204293
:100B2000DB48006840F00100D94908600846406889
:100B3000D8490840D649486008460068D649084068
:100B4000D34908600846006820F480200860084601
:100B5000406820F4FE0048604FF41F008860704732
:100B6000CB49096821F48031C94A116011460968EE
:100B700021F480211160B0F5803F03D0B0F5802FC3
:100B80000ED106E0C249096841F48031C04A1160C3
:100B900007E0BF49096841F4A021BD4A116000E0A7
:100BA00000BF00BF704710B501460022002300209F
:100BB0004A11012A02D1B64C236806E0022A02D16A
:100BC000B34C236A01E0B24C636A01F01F020124B6
:100BD00094401C4201D0012000E0002010BD70B5FF
:100BE00000240025002600BF3120FFF7DCFF064669
:100BF000641CB4F5A06F01D0002EF5D03120FFF7B2
:100C0000D2FF08B1012500E00025284670BD01464D
:100C100000209F4A106820F0F80040EAC1001060F0
:100C200070479E490860704702460020984B5868FC
:100C300020F47C1042EA01031843954B586070473A
:100C400096490866704701460020914A506820F096
:100C500003000843506070478D48406800F00C0066
:100C60007047014600208A4A506820F0F00008438F
:100C70005060704701460020854A506820F4E060CB
:100C800008435060704701460020814A506820F4B4
:100C9000605040EAC1005060704729B17C4A527AE6
:100CA00002437B4B5A7204E0794A527A8243784B72
:100CB0005A7270477A490860704701460020744AAA
:100CC000506820F440400843506070470021754A46
:100CD00011706F4A82F82010012802D0042808D130
:100CE00003E001216F4A117004E005216D4A117083
:100CF00000E000BF00BF70476B490860704764495F
:100D0000096A0143624A11627047674944390860C1
:100D1000704730B500210022002400235C4D6D682F
:100D200005F00C0121B1042905D0082923D105E0E3
:100D30005E4D056022E05D4D05601FE0544D6D681D
:100D400005F47012524D6D6805F48034022505EBF0
:100D500092421CB9564D554305600BE04C4D6D68F1
:100D600015F4003F03D0524D5543056002E04F4D4E
:100D70005543056002E04D4D056000BF00BF444D86
:100D80006D6805F0F00109094A4D6B5C0568DD40AE
:100D900045603F4D6D6805F4E061090A454D6B5CA7
:100DA0004568DD4085603A4D6D6805F46051C90ABB
:100DB000404D6B5C4568DD40C560354D6D6805F4A0
:100DC0004041890B3C4D6B5CC568B5FBF3F5056193
:100DD00030BD29B12E4A526902432D4B5A6104E0BD
:100DE0002B4A526982432A4B5A61704729B1284ADB
:100DF00092690243264B9A6104E0254A9269824334
:100E0000234B9A61704729B1214AD2690243204B92
:100E1000DA6104E01E4AD26982431D4BDA617047F1
:100E200029B11B4AD2680243194BDA6004E0184A20
:100E3000D2688243164BDA60704729B1144A1269AE
:100E40000243134B1A6104E0114A12698243104BAA
:100E50001A61704714494039086070470F49C864E7
:100E600070470B49C87170470948406A40F080706C
:100E700007494862704701460020054A92680A42C5
:100E800001D0012000E000207047014988727047BE
:100E9000001002400000FFF8FFFFF6FE0000424293
:100EA000D8004242201002408004424200127A00E0
:100EB00000093D00080900201809002000204449CD
:100EC0000860091D0860091D0860091D0860414887
:100ED0003F4914310860704700213D498279002A5A
:100EE0003AD00A46126803689A430B461A600A1DF4
:100EF000126803689A430B1D1A60027911440A684C
:100F000003681A430A60324A0832126803689A4337
:100F10002F4B08331A601A1D126803689A432C4B32
:100F20000C331A604279102A0ED11A1F1268036816
:100F30001A43274B08331A601A1D126803681A43B4
:100F4000234B0C331A600DE02149427911440A68A1
:100F500003681A430A6005E0027911440A680368CD
:100F60009A430A6070470021016001710C214171B0
:100F70000021817170471649103109680143144AF4
:100F800010321160704701460020114A1432126875
:100F90000A4201D0012000E0002070470C491431C2
:100FA00008607047014600200022094B1B6803EAD5
:100FB0000102074B14331B680B4202D00AB1012017
:100FC00000E00020704702491431086070470000BB
:100FD00000040140FFFF0F0008B501210C20FFF7BE
:100FE00005FF3920ADF8000010208DF80300032024
:100FF0008DF802006946FE48FFF746FC4FF47F403B
:10100000ADF800006946FB48FFF73EFCFF20ADF855
:1010100000006946F748FFF737FC0620ADF80000EE
:1010200028208DF803006946F148FFF72DFC08BD24
:1010300010B50020F04908604FF00100EF49C1F8F9
:101040008C01EF4908604FF00000EC49C1F88001C5
:101050004FF01E0000F0FEFA0120EA4908604FF050
:101060001E0000F0F7FA0120E749C1F880014FF4B3
:101070007F41E048FFF7B3FC0021DE48FFF7B1FCF9
:1010800010BD70B504464FF6FF7000EA042500203D
:10109000D94908604FF00100DB49C1F88401DB4900
:1010A000086005F47F41D348FFF799FC4FF47F4077
:1010B00020EA0501CF48FFF794FC0020D249C1F88F
:1010C0009401642000F0A3FA0120D1490860CE49C0
:1010D000C1F8800170BD70B504464FF6FF7000EA9C
:1010E00004250020C44908604FF00100C649C1F83A
:1010F00084014FF00000C549086005F47F41BD48F8
:10110000FFF76DFC4FF47F4020EA0501B948FFF777
:1011100068FC0020BC49C1F89401642000F077FA13
:101120000120BB490860B9490860B349086070BD37
:1011300038B548208DF8030003208DF802004FF4E5
:101140007F40ADF800006946AA48FFF79DFB0520E7
:1011500000F080FA0120AE4908604FF00000AA4973
:10116000C1F89801A4490860A749C1F884014FF467
:10117000FA7000F04CFA9F48FFF720FC044601206B
:101180009F4908609C490860A049086020464FEAD2
:10119000E47104EB1161C1F307254FF010008DF8E5
:1011A000030069469348FFF76FFB284638BD10B52A
:1011B0000020FFF766FF0020FFF78DFF0120FFF7FB
:1011C00060FF3420FFF787FF0320FFF75AFF8320DB
:1011D000FFF781FF0F20FFF754FF1020FFF77BFF81
:1011E0001020FFF74EFF0620FFF775FF1120FFF7D5
:1011F00048FFB020FFF76FFF1220FFF742FF1120DA
:10120000FFF769FF2020FFF73CFF1D20FFF763FF7A
:101210002120FFF736FF1D20FFF75DFF3020FFF78D
:1012200030FF7F20FFF757FF3120FFF72AFF7F2095
:10123000FFF751FF4020FFF724FF0020FFF74BFF8F
:101240005020FFF71EFF0020FFF745FF6020FFF74B
:1012500018FF0020FFF73FFF6120FFF712FF00207B
:10126000FFF739FF6220FFF70CFF0020FFF733FF85
:101270007020FFF706FF0020FFF72DFF7120FFF71A
:1012800000FF0020FFF727FF7220FFF7FAFE002083
:10129000FFF721FF8020FFF7F4FE0020FFF71BFF80
:1012A0009020FFF7EEFE8420FFF715FFC020FFF728
:1012B000E8FE8020FFF70FFFC420FFF7E2FE812049
:1012C000FFF709FFD020FFF7DCFE0020FFF703FF48
:1012D000D120FFF7D6FE0020FFF7FDFEE020FFF74C
:1012E000D0FE0020FFF7F7FEF020FFF7CAFE002037
:1012F000FFF7F1FEF120FFF7C4FE0020FFF7EBFE41
:101300000F20FFF7BEFE1020FFF7E5FE10BD10B561
:10131000E020FFF7B6FE0020FFF7DDFEF020FFF72C
:10132000B0FEA820FFF7D7FE032000F093F910BD10
:1013300070B50446204600F0B9F986B2002505E0F4
:101340002078FFF7C8FE641C681C85B2B542F7DB45
:1013500070BD10B50446052000F07CF9FFF7D7FFFB
:101360000020FFF78EFE0C20FFF7B5FE4020FFF7B0
:1013700088FE0020FFF7AFFE2020FFF782FE1D2031
:10138000FFF7A9FE5020FFF77CFE0020FFF7A3FE29
:101390003020FFF776FE7F20FFF79DFE2120FFF72C
:1013A00070FE1D20FFF797FE3120FFF76AFE7F20B9
:1013B000FFF791FE6020FFF764FE0020FFF78BFE31
:1013C0007020FFF75EFE0020FFF785FEB020FFF7DC
:1013D00058FE2046FFF7ACFF1E2000F03BF96020CE
:1013E000FFF74FFE0020FFF776FE702012E00000AE
:1013F00000080140000C0140808121420000214290
:101400008481214280012142008021429881214231
:1014100094812142FFF735FE6620FFF75CFE8020B5
:10142000FFF72FFE5520FFF756FE10BD0EB5012128
:101430000846FFF7DBFC01210020FFF739FB022003
:10144000019000208DF8080008208DF80900012087
:101450008DF80A0001A8FFF73FFD4FF4A060FFF7E9
:1014600045F907208DF8000002208DF801000320C7
:101470008DF8020001208DF803006846FFF73BF964
:101480000EBD000008B501210C20FFF7AFFC4FF4A2
:101490007060ADF8000010208DF8030003208DF877
:1014A000020069463348FFF7EFF908BD00203249D2
:1014B00008603249C1F8A0014FF0010030490860CE
:1014C00001F1040108602C4908602C49C1F8A00111
:1014D000704710B50120284908604FF000002749E7
:1014E000C1F8A0014FF001002549086001F1040195
:1014F00008604FF00000204908604FF0050000F040
:1015000086F810BD70B504460D46FFF7CFFF1026D4
:101510002BE04FF47A7000F09DF801201649086026
:1015200014F4004F02D01649086002E0002014496C
:1015300008604FF6FF7000EA440415F4004F03D032
:1015400001201049086002E000200E4908604FF6B3
:10155000FF7000EA45054FF00000074908604FF0B2
:10156000050000F054F8701EC6B2002ED1DCFFF763
:10157000B0FF70BD00080140A401214200002142DB
:10158000A8012142AC01214210B5FFF7C9FA4FF47E
:101590008030FFF7E5FA00BFFFF721FB0028FBD002
:1015A0004FF4E0114FF48030FFF73EFB0A4800682B
:1015B00040F03200084908600120FFF741FB02209B
:1015C000FFF741FB00BFFFF747FB0828FBD10120D5
:1015D000FFF744FC10BD00000020024010B56FF082
:1015E0000400FFF7D3F82D4800682D49B0FBF1F057
:1015F0002C4908700846007800EB4001C1EBC01090
:101600004FF6FF7101EAC0002749088010BD01466E
:10161000244A12784A434FF0E0235A6100229A612B
:101620001A46126942F001021A6100BF4FF0E0222F
:10163000106910F0010F02D010F4803FF6D04FF087
:10164000E022126922F001024FF0E0231A61002229
:101650009A6170470146144A12884A434FF0E023CA
:101660005A6100229A611A46126942F001021A6117
:1016700000BF4FF0E022106910F0010F02D010F40B
:10168000803FF6D04FF0E022126922F001024FF0C5
:10169000E0231A6100229A6170470000F4080020DC
:1016A00000127A001C0900201E09002010B5431CFE
:1016B00002E010F8011B71B18107FAD14FF001323D
:1016C00002C88C1A8C4314EAC211F9D0C01A0A0657
:1016D00003D0C01E10BDC01A10BD0A0401D0801E68
:1016E00010BD0902FCD0401E10BD70477047704706
:1016F000754600F029F8AE4605006946534620F0CD
:101700000700854618B020B5FEF7DEFFBDE8204093
:101710004FF000064FF000074FF000084FF0000BAD
:1017200021F00701AC46ACE8C009ACE8C009ACE860
:10173000C009ACE8C0098D4670470446AFF300808D
:101740002046FEF73EFD00000048704720090020BB
:1017500001491820ABBEFEE72600020070470000DA
:101760008017000800000020200900002801000860
:10177000C819000820090020600600008C0100083C
:10178000023D2001001724BBB6D3ADCAB9D3C3CEE6
:10179000E4BABABFADC8F0B5CFBCA4B9E23C200BE7
:1017A000434C432D33303020D0CD3400092BC7E5D6
:1017B000CFB4C9E8B1B87F000927B5E3BBF7BCCC0B
:1017C000D0F8C78200BB000B28D6F72020BDE72049
:1017D00020C3E6EF8009D4CBD0D0D7B4CCAC820004
:1017E0000722B2D9D7F7BDE7448009B2CECAFDC9F6
:1017F000E8D6C312000920B1A8BEAFD6B8CABE78D9
:1018000025638005CBB5C3F712000928C1AACFB55F
:10181000CED2C3C7F1A00AD4CB20D0D020D7B420D9
:10182000BF011D787007C6F8D1B9A3BA43B3CBAED8
:101830000F9005B5E7C1F71E5005C6B5C2CA2D8485
:101840000C4B487A20B1A3BBA4C6F83A6F7005B41C
:10185000B5C6F84D840AC9A8C3E8B7BDCABD3A5990
:10186000210F915E091875000521B7B5BBD8F12489
:1018700006B2D920D7F7E3052AE2298BC005CAB9F9
:10188000C4DC123005C6F4CDA3F26004F720510C7D
:101890004D01036005B9D8D5A21EC005D5F1BEB56E
:1018A0001E5005B3E9D1CC1E450FA13D4512C131F3
:1018B000013CF1A809CE20CAFD20C9E82065012419
:1018C000F325CB9E3A9C03C241FF15DAA11E25DF0A
:1018D0000513C70D112F0301181E0D141604061948
:1018E0002BE290063C202D203EF10C0A22B1A820CC
:1018F000BEAF20D6B82044030187012C05C7E5B34D
:10190000FDFB030922D39C05B7ADD2B3C403AC0AD7
:10191000CAB920D3C320CBB5200B0401B3010125E4
:10192000F10C0A20C1AA20CFB520CED220EA0401B2
:101930009D010D1CB5042F312E6B052029B2BBD79C
:10194000E3A3ACC7EBBCECB2E9B5AAC6F8B9DCB509
:10195000C0A3BB2020322EC0E4C8B4CBAEC1F7C1B7
:10196000BFB5CDA3AC2021124C09CFB5CDB3A3BBDD
:10197000332E5C041014CEB4BFAAC6F4A3ACB2BB21
:10198000C4DCC6F4B6AFB5F7513D13342E08C0051C
:10199000C3BBD3D01D2DF503215B09D25A0E1320F2
:1019A0003D04495A21015005A24A04000160090181
:1019B000020304060708090C61101004020406154E
:0819C0000300282300000000D1
:04000005080000ED02
:00000001FF
