:020000040800F2
:10000000380C002085220008A1200008A320000849
:10001000A7200008AB200008AF2000080000000067
:10002000000000000000000000000000B3200008F5
:10003000B520000800000000B7200008B920000823
:100040009F2200089F2200089F2200089F2200088C
:100050009F2200089F2200089F2200089F2200087C
:100060009F2200089F2200089F2200089F2200086C
:100070009F2200089F2200089F2200089F2200085C
:100080009F2200089F2200089F2200089F2200084C
:100090009F2200089F2200089F2200089F2200083C
:1000A0009F2200089F2200089F2200089F2200082C
:1000B0005D1F00082B1F0008071F00089F22000873
:1000C0009F2200089F2200089F2200089F2200080C
:1000D0009F2200081F6E00089F2200089F22000830
:1000E0009F2200089F2200089F2200089F220008EC
:1000F0009F2200089F2200089F2200089F220008DC
:100100009F2200089F2200089F2200089F220008CB
:100110009F2200089F2200089F2200089F220008BB
:100120009F2200089F2200089F2200089F220008AB
:1001300000F002F800F05AF80AA090E8000C82449F
:100140008344AAF10107DA4501D100F04FF8AFF27C
:10015000090EBAE80F0013F0010F18BFFB1A43F0A5
:10016000010318477C8C00009C8C00000A444FF06F
:10017000000C10F8013B13F0070408BF10F8014B06
:100180001D1108BF10F8015B641E05D010F8016B4B
:10019000641E01F8016BF9D113F0080F1EBF10F8AF
:1001A000014BAD1C0C1B09D16D1E58BF01F801CBD2
:1001B000FAD505E014F8016B01F8016B6D1EF9D555
:1001C0009142D6D37047000000230024002500266A
:1001D000103A28BF78C1FBD8520728BF30C148BFAA
:1001E0000B6070471FB51FBD10B510BD06F074FE43
:1001F0001146FFF7F7FF00F009F806F092FE03B48E
:10020000FFF7F2FF03BC06F0ADFD000098B0FEA0C2
:1002100003C8CDE90E0100200C900B900120FC4991
:10022000087006F05FFD06F0F5FC04F0D9FC02F062
:10023000A5F902F0CCF902F031FB02F043F802F02C
:1002400097F840F26711012004F074FC48F69F41D2
:1002500040F2CF7004F044FC48F69F4140F2E73092
:1002600004F091FC02F0B0F802F0F2F8E94802F074
:10027000BEF8E94802F0BBF8E8480188E848008881
:1002800002F047F80020E7490860E749C1F8840117
:10029000E649086001F10401086001F10401086009
:1002A000E149C1F8A4014FF4167006F0EFFC0020FC
:1002B000179046E0179880000A9004F0F2FB10AA0D
:1002C000179942F8210010A9179851F82000000E44
:1002D000179901EB8101D64A505410A9179851F88B
:1002E0002000010C179800EB80001044417010A909
:1002F000179831F82000010A179800EB800010448D
:10030000817010A9179811F82000C1B2179800EB5E
:1003100080001044C1700021179800EB8000104449
:100320000171179800EB8000114608440A9004F010
:1003300061FAC04A179942F821001798401CC0B2D0
:10034000179017980528B5DB4FF4167006F09EFC41
:10035000B8480068B849099008F00CFB4FF0834199
:100360000A9008F0F1F9B5490860B24840684FF0CA
:1003700080410A9008F0E8F9B0494860AD488068CB
:10038000AF490A9008F0F6FAAC498860A948C068FD
:10039000AB490A9008F0EEFAA849C860A548006980
:1003A00001460A90A74808F0CFF9A4490861084619
:1003B00000680A9008F08AFAA34908809F484068BC
:1003C0000A9008F083FAA04948809C4880680A9007
:1003D00008F07CFA9C4988809848C0680A9008F028
:1003E00075FA9949C880954800690A9008F06EFA34
:1003F000954908810120954908708E480069014699
:100400000990934808F0A0F90A9008F05FFA914922
:100410000860884800688849089008F0ABFA4FF0F7
:100420008341099008F090F90A9008F0F3F88A4A9D
:1004300003C2804840684FF08041099008F084F979
:100440000A9008F0E7F8854A03C24122824903C9AD
:1004500002F02DF84222814903C902F028F84FF436
:10046000167006F013FC03F061F900207C49088047
:1004700040F6C411042004F01DFB6E4800686E496C
:10048000089008F077FA4FF08341099008F05CF982
:100490000A9008F0BFF8704A03C2664840684FF0FF
:1004A0008041099008F050F90A9008F0B3F86B4ABF
:1004B00003C24122684903C901F0F9FF422267499A
:1004C00003C901F0F4FF01F01CBD04F005FB654811
:1004D000006830B164480088C0F30E0062490880AB
:1004E00005E06148008840F400405F4908805F48AB
:1004F000006868B15C4800884BF6FF7108405A49B3
:1005000008805B48006840F040005949086005E0F9
:100510005548008840F48040534908805548006899
:1005200068B1514800884DF6FF7108404E49088077
:100530004F48006840F080004D49086005E04A4897
:10054000008840F40050484908804B48006868B172
:10055000454800884FF6FE710840434908804448EA
:10056000006840F400704249086005E03E48008899
:1005700040F001003C4908804048006878B9404894
:10058000008800F48060B0F5806F08D10120274911
:1005900008602549C1F888013A49087005E0002043
:1005A000224908602049C1F88801374800882E494F
:1005B0000988884270D02A48008801286CD12A48CE
:1005C000008800F400403049098801F40041884265
:1005D00067D02548008810F4004F63D01D203D21CE
:1005E0001F224523CDE90632CDE9081027A00021BE
:1005F0002022CDE90212CDE9041002200321872335
:100600004122CDE9001048E0202020200000000019
:10061000B00400200100080001000A008804002046
:1006200086040020800124420000244294012442D8
:100630006C040020300400200000A040EC040020E6
:10064000008022440050C34700050020850400209C
:100650000000C84298040020A0040020A804002044
:1006600096040020140123420C00002018012342AC
:10067000100000201C012342000123420C012342F0
:100680000E0000200100002090040020C0E4C8B447
:10069000D5FDB3A300000000A7E09B21552002F088
:1006A000ACFE18E01D203D211F224523CDE9063276
:1006B000CDE90810FEA000211F23CDE90231CDE9CC
:1006C00004100220032187234122CDE900109B2141
:1006D000552002F092FEF948008800F48040F84965
:1006E000098801F48041884237D0F448008810F42A
:1006F000804F19D01D203D211F224523CDE9063210
:10070000CDE90810EFA000212022CDE90212CDE9A9
:1007100004100220032187234122CDE90010EB21A0
:10072000A52002F06AFE18E01D203D211F2245236E
:10073000CDE90632CDE90810E5A000211F23CDE95F
:100740000231CDE904100220032187234122CDE9A3
:100750000010EB21A52002F050FED848008800F4DC
:100760000050D749098801F40051884239D0D34854
:10077000008810F4005F1AD01D203D211F22452360
:10078000CDE90632CDE90810D4A000212022CDE920
:100790000212CDE904100220032187234122CDE972
:1007A000001040F23B11F52002F027FE19E01D2059
:1007B0003D211F224523CDE90632CDE90810CAA00C
:1007C00000211F23CDE90231CDE9041002200321CD
:1007D00087234122CDE9001040F23B11F52002F0C1
:1007E0000CFEB6480088B6490880C2480088C24955
:1007F0000988884271D0C148008801286DD1BE485F
:10080000008800F40040BB49098801F40041884297
:1008100039D0B948008810F4004F1AD01D203D216E
:100820001F224523CDE90632CDE90810B4A00021EE
:100830002022CDE90212CDE90410032000904FF4EC
:1008400095734FF48172DC210190502002F0D5FDA8
:1008500019E01D203D211F224523CDE90632CDE9B7
:100860000810AAA000211F23CDE90231CDE9041010
:10087000032000904FF495734FF48172DC210190B6
:10088000502002F0BAFD9C48008800F4804099494D
:10089000098801F4804188423AD09748008810F4D2
:1008A000804F1BD01D203D211F224523CDE906325C
:1008B000CDE9081098A000212022CDE90212CDE94F
:1008C0000410032000904FF4AB734FF49772DC21B7
:1008D0000190502002F091FD1AE02DE21D203D21F3
:1008E0001F224523CDE90632CDE908108DA0002155
:1008F0001F23CDE90231CDE90410032000904FF40D
:10090000AB734FF49772DC210190502002F075FD1B
:100910007948008800F400507649098801F40051B4
:1009200088423AD07448008810F4005F1AD01D2025
:100930003D211F224523CDE90632CDE908107CA0D8
:100940000021CDE90212CDE90410032000904FF4FC
:1009500095734FF4817240F26D110190E12002F025
:100960004CFD1AE01D203D211F224523CDE9063212
:10097000CDE9081071A000211F23CDE90231CDE996
:100980000410032000904FF495734FF4817240F2ED
:100990006D110190E12002F030FD5748008800F40D
:1009A00080505449098801F4805188423BD0524814
:1009B000008810F4805F1BD01D203D211F2245239D
:1009C000CDE90632CDE908105FA000212022CDE953
:1009D0000212CDE90410032000904FF4AB734FF4E2
:1009E000977240F26D110190E12002F006FD1AE0CD
:1009F0001D203D211F224523CDE90632CDE90810F7
:100A000054A000211F23CDE90231CDE904100320B9
:100A100000904FF4AB734FF4977240F26D11019058
:100A2000E12002F0EAFC3448008800F4006031491B
:100A3000098801F40061884220D02F48008810F412
:100A4000006F1CD01D203D211F224523CDE9063219
:100A5000CDE9081042A000212022CDE90212CDE903
:100A60000410032000904FF495734FF481724FF4FB
:100A7000FF7101904FF4B97002F0BFFC80E01D20BF
:100A80003D211F224523CDE90632CDE9081037A0CC
:100A900000211F23CDE90231CDE90410032000908D
:100AA0004FF495734FF481724FF4FF71019063E03E
:100AB000C0E4C8B4B9CAD5CF000000000C000020C3
:100AC00090040020C6F8D1B9D5FDB3A30000000002
:100AD000C6F8D1B920B5CD2000000000B5F72051EF
:100AE000D5FDB3A300000000B5F72051B9CAD5CF9A
:100AF00000000000920400200E0000209604002058
:100B0000D6C6C0E4CDA3D6B900000000D6C6C0E466
:100B1000C6F4B6AF00000000B5F72051CDA3D6B99A
:100B200000000000B5F72051C6F4B6AF0000000089
:100B3000B4B5C6F8CAA7C4DC00000000B4B5C6F856
:100B4000CAB9C4DC00000000C9A8C3E8CDA3D6B967
:100B500000000000C9A8C3E8C6F4B6AF000000005A
:100B6000BCA4B9E2CDA3D6B900000000BCA4B9E290
:100B7000C6F4B6AF000000004FF4B97002F03DFCBF
:100B8000FC48008800F48060FB49098801F480611A
:100B900088423DD0F748008810F4806F1CD01D209B
:100BA0003D211F224523CDE90632CDE90810F3A0EF
:100BB00000212022CDE90212CDE90410032000908B
:100BC0004FF4AB734FF497724FF4FF7101904FF4F1
:100BD000B97002F012FC1BE01D203D211F224523AD
:100BE000CDE90632CDE90810E7A000211F23CDE9A9
:100BF0000231CDE90410032000904FF4AB734FF4A1
:100C000097724FF4FF7101904FF4B97002F0F5FB49
:100C1000D848008800F40070D749098801F40071B1
:100C200088423DD0D348008810F4007F1CD01D209E
:100C30003D211F224523CDE90632CDE90810D5A07C
:100C400000212022CDE90212CDE9041003200090FA
:100C50004FF495734FF4817240F28F21019040F26E
:100C6000032002F0CAFB1BE01D203D211F2245236B
:100C7000CDE90632CDE90810C9A000211F23CDE936
:100C80000231CDE90410032000904FF495734FF426
:100C9000817240F28F21019040F2032002F0ADFBFF
:100CA000B448008800F48070B349098801F4807169
:100CB00088423DD0AF48008810F4807F1CD01D20B2
:100CC0003D211F224523CDE90632CDE90810B7A00A
:100CD00000212022CDE90212CDE90410032000906A
:100CE0004FF4AB734FF4977240F28F21019040F2B2
:100CF000032002F082FB1BE01D203D211F22452323
:100D0000CDE90632CDE90810ABA000211F23CDE9C3
:100D10000231CDE90410032000904FF4AB734FF47F
:100D2000977240F28F21019040F2032002F065FBA0
:100D30009048008890490880A248006858BBA248A3
:100D4000006840BB0A2005F0A1FF9E48006810BB68
:100D50009D480068F8B98748008810F4807F1BD050
:100D6000844800884BF2FF21084082490880002017
:100D7000964908609649C1F89401964908609449DB
:100D8000C1F8A4010146944805F062FA0020934995
:100D900008709349087016E07648008810F4406F98
:100DA00011D17448008840F4807072490880012095
:100DB000884908600146884805F04AFA00208849B9
:100DC0000870864908708748008810F4004F1DD1CC
:100DD00085480088012819D18448006840F0200027
:100DE000824908606348008810F49A4F0ED0614829
:100DF00000884BF2FF3108405E49088000207349AB
:100E000008607349C1F89401794908607548008801
:100E100010F4804F2AD174480088012826D17348E5
:100E2000006840F04000714908605248008810F4A2
:100E30004D4F1BD04F48008843F2FF2108404D49D9
:100E4000088000206B4908606149C1F88401684945
:100E50000860694908605F4908604FF00100674910
:100E600008704FF000015C4805F0F2F95D48008819
:100E700010F4005F24D15C480088012820D15B4831
:100E8000006840F08000594908603A48008810F432
:100E90009A4F15D0374800884BF2FF21084035495A
:100EA00008800020494908604949C1F8940149492E
:100EB00008604749C1F8A4010146474805F0C8F950
:100EC0004848007810F0010F2AD1474800880128CF
:100ED00026D14648006840F400704449086025481F
:100EE0000078244908800020424908603849C1F848
:100EF0008401434908604049086001F10401086029
:100F0000344908603A4908604FF40041084601F04E
:100F100000FA00214FF0804005F09AF901F031FA13
:100F20001448008810F4807F6ED02D48007810B1EE
:100F300001281ED16AE00F48008800F43220B0F585
:100F4000324F62D00B48008840F432400949088093
:100F500001202849086001464FF0804005F078F9EB
:100F600000202849086001F0C1F901201849C1F8A2
:100F7000980188E00E00002092040020B9E2D5A27A
:100F8000CAA7C4DC00000000B9E2D5A2CAB9C4DC1B
:100F900000000000B3E9C6F8CDA3D6B900000000F8
:100FA000B3E9C6F8C6F4B6AF00000000D7D4B6AFB8
:100FB000CDA3D6B900000000D7D4B6AFD4CBD0D0E3
:100FC000000000001001234200012342840124425A
:100FD000000024429C012442000400400000002044
:100FE000050000200C0000209604002010000020C6
:100FF000A4012442800124429401244201000020E3
:10100000880124428C0400203EE03CE0FB4800883C
:1010100000F43240B0F5324F1CD1F9480088A0F5F9
:101020007F41FF3916D1F548008840F49040F349DC
:1010300008800120F3490860F349C1F8A4014FF08A
:101040000001F24805F004F90020F1490870F14967
:10105000087017E0E94800884FF6FF610840E7494B
:1010600008800020EC4908600146E84805F0F0F8E7
:101070000020E74908700021E64801700120E74997
:10108000087000E000BF00BFE448007801280BD1E1
:10109000E3480088022807D1E2480168E24803F0EB
:1010A00003F90020DD490870DC48007801282CD1C4
:1010B000DB480088012828D10020D8490870D94889
:1010C000006888B100201F220A23CDE90220019385
:1010D0000093049040F2C71340F295124FF42F7121
:1010E000642002F00FF910E0002020210A23CDE94E
:1010F00001300093CDE9031040F2C71340F295127E
:101100004FF42F71642002F0FDF801F061FDD8B1B9
:10111000C6480078C0B10020C44908700121C44805
:1011200005F096F801F063FD169001F086FD15902C
:101130000120C049087003E00421F12001F0DAFA2F
:1011400001F046FD0028F7D1BA480078002874D095
:101150000120B24908700020B6490870B0480088E4
:1011600030B1012821D0022868D0042867D159E382
:101170001698B0F5AD7F16DB1698B0F5FA7F12DA47
:101180001598B0F58C7F0EDD1598B0F5A07F0ADAC2
:101190000120A34908809948028899480188A648F7
:1011A00002F019FB00E001E3FDE71698552816DD73
:1011B0001698E22813DA1598CD2810DD1598F52831
:1011C0000DDA8E48008810F4006F08D100209B498A
:1011D000088004209249088003F0F7F8E7E21698A7
:1011E000E22812DD1698B0F5B97F0EDA1598CD28F1
:1011F0000BDD1598F52808DA0120904908800420B5
:101200008749088003F0E1F8D1E21698B0F5B97F7C
:1012100016DD40F202211698884211DA1598CD2881
:101220000EDD1598F5280BDA022084490880042089
:101230007B49088003F0C9F8B9E2F9E3B8E2F8E3C2
:1012400040F202211698884213DD40F2922116984E
:1012500088420EDA1598CD280BDD1598F52808DAA6
:1012600003207649088004206D49088003F0ADF81A
:101270009DE240F292211698884212DD40F21F3121
:10128000169888420DDA1598CD280ADD1598F528AC
:1012900007DA0420694908806149088003F095F85D
:1012A00085E21698502838DD1698DC2835DA15982E
:1012B000B0F5817F31DD1598B0F5957F2DDA4F4877
:1012C000008810F4004F17D04C48008843F2FF21EB
:1012D00008404A4908800020594908604A49C1F835
:1012E0008401584908604C49086057490860014624
:1012F000464804F0ADFF5AE24148008844F201013B
:101300000840884298D13D48008840F400403B495D
:10131000088001204A49086049E21698502840DDBB
:101320001698DC283DDA1598B0F5977F39DD1598C9
:10133000B0F5AB7F35DA3148008800F48040B0F575
:10134000804F16D12D4800884BF2FF2108402B49D1
:10135000088000202B4908602B49C1F894012E49D0
:1013600008602949C1F8A4010146284804F070FF2B
:101370001DE22248008800F40040B0F5004F8FD1F4
:101380001F4800884EF201010840884288D11B485E
:10139000008840F4804019490880012019490860FC
:1013A00005E21698E1285DDD1698B0F5B67F59DCA8
:1013B0001598B0F5817F55DD1598B0F5957F51DA18
:1013C0000E48008810F4005F40D00C4800884DF2B1
:1013D000FF2108400949088000201A4908600A498D
:1013E000C1F89C01184908604FF001000B490870D2
:1013F0004FF00001054804F02BFFD8E10E0000205B
:101400000C0000208401244200002442000400401B
:1014100000000020050000209C0124420100002063
:10142000960400201000002014000020020000207C
:1014300000080040030000206C04002094040020F9
:101440008001244294012442A4012442FE480078F1
:1014500010F0010F8CD0FD48008840F40050FB498B
:101460000880A4E11698E12840DD1698B0F5B67F13
:101470003CDC1598B0F5977F38DD1598B0F5AB7F5B
:1014800034DAF248008810F4805F19D0EF48008801
:101490004EF6FF210840ED4908800020EC49086025
:1014A000EC49C1F89C014FF40041084600F031FFBF
:1014B00000214FF0804004F0CBFE00F062FF76E1A7
:1014C000E248008840F48050E04908800121880704
:1014D00004F0BEFE4FF40040DF490880DF49088079
:1014E0000020DF49086000F001FF60E11698B0F5C8
:1014F000B97F39DD1698B0F5FF7F35DA1598B0F56C
:10150000817F31DD1598B0F5957F2DDACF480088C1
:1015100010F4006F0AD0CD4800884FF2FF710840E8
:10152000CA4908800020CF49086040E1C7480088C8
:1015300000F47040B0F5704F93D1C3480088A0F517
:101540007F41FF398DD1C14800884FF6FF310843F4
:10155000884286D1BD48008840F40060BB490880BD
:101560000120C049086022E11698B0F5B97F26DD58
:101570001698B0F5FF7F22DA1598B0F5977F1EDD3B
:101580001598B0F5AB7F1ADAB048008810F4806F78
:1015900007D0AE4800884FF6FF310840AB490880BD
:1015A00005E1AA48008800F45040B0F5504F05D13D
:1015B000A648008840F48060A4490880F7E01698A7
:1015C000B0F5017F2BDB40F28F211698884226DA96
:1015D0001598B0F5817F22DD1598B0F5957F1EDA5C
:1015E0009A48008810F4007F0AD0984800884FF687
:1015F000FF5108409549088000209B490860D6E0CB
:101600009148007810F0010F08D09048008840F40D
:1016100000708E490880012093490860C7E0169841
:10162000B0F5017F48DB40F28F211698884243DAFB
:101630001598B0F5977F3FDD1598B0F5AB7F3BDA95
:101640008248008810F4807F1BD0804800884BF2CD
:10165000FF2108407D4908800020844908607D49B9
:10166000C1F89401824908607A49C1F8A401014691
:10167000804804F0EDFD00207F4908707F49087024
:1016800095E07248008810F4406F14D16F480088CC
:1016900040F480706D4908800120754908604FF062
:1016A0000000754908704FF00101724804F0D0FD48
:1016B0000020724908707AE01698B0F5257F2FDD7A
:1016C0001698B0F53A7F2BDA1598B0F5817F27DDB3
:1016D0001598B0F5AB7F23DA5C48008848F2FF012B
:1016E00008405A4908800020604908605949C1F8FB
:1016F00094015D4908605E4908605A4908600146E6
:101700005C4804F0A5FD00214FF0804004F0A0FDEE
:101710004FF40041084600F0FCFD00F032FE46E0C8
:101720001698002813DD1698502810DA1598B0F591
:10173000C87F0CDD1598B0F5F07F08DA022050491B
:10174000088050480168504802F0AEFD2FE016981E
:10175000B0F5347F2ADD1698B0F5487F26DA159863
:10176000B0F5C87F22DD1598B0F5F07F1EDA1D2098
:101770003D211F224023CDE90632CDE9081043A0C8
:1017800000212022CDE90212CDE904100A200090A8
:1017900040F2C71340F295124FF42F71019064206C
:1017A00001F02BFE00203749086000E0A4E3A3E32A
:1017B0001698B0F5347F17DD40F21631169888423E
:1017C00012DA1598B0F5D77F0EDD1598B0F5EB7FDE
:1017D0000ADA01202A4908801C4802881A48018830
:1017E0002C4801F0F8FF1CE01698B0F5AF7F17DD2C
:1017F0001698B0F5E17F13DA1598B0F5D77F0FDDB5
:101800001598B0F5EB7F0BDA00201E4908600846FA
:1018100001681D4802F048FD01201F49087000E0E2
:101820006AE369E31698F22841DD1698B0F59F7FC8
:101830003DDA1598B6283ADD1598DA2837DA0C988B
:10184000042833DA312129E00C0000200E000020AA
:1018500094012442000024428604002088040020D1
:101860008C040020A40124429801244284012442D3
:101870009C012442000400400000002005000020DC
:1018800096040020100000201400002020202020BA
:10189000200000006C040020010000200EAA0C981B
:1018A00011540C98401CC0B20C9009E324E3169824
:1018B000B0F5A17F16DD1698B0F5C77F12DA15983E
:1018C000B6280FDD1598DA280CDA0C98042808DA07
:1018D00032210EAA0C9811540C98401CC0B20C90E6
:1018E000EEE209E31698B0F5C97F16DD1698B0F55B
:1018F000EF7F12DA1598B6280FDD1598DA280CDA82
:101900000C98042808DA33210EAA0C9811540C986C
:10191000401CC0B20C90D3E2EEE21698F22817DD1C
:101920001698B0F59F7F13DA1598DE2810DD15980C
:10193000B0F5817F0CDA0C98042808DA34210EAA5D
:101940000C9811540C98401CC0B20C90B8E2D3E231
:101950001698B0F5A17F17DD1698B0F5C77F13DA9A
:101960001598DE2810DD1598B0F5817F0CDA0C98FB
:10197000042808DA35210EAA0C9811540C98401C42
:10198000C0B20C909CE2B7E21698B0F5C97F17DDA3
:101990001698B0F5EF7F13DA1598DE2810DD15984C
:1019A000B0F5817F0CDA0C98042808DA36210EAAEB
:1019B0000C9811540C98401CC0B20C9080E29BE231
:1019C0001698F22818DD1698B0F59F7F14DA15984E
:1019D000B0F5837F10DD1598B0F5957F0CDA0C9883
:1019E000042808DA37210EAA0C9811540C98401CD0
:1019F000C0B20C9064E27FE21698B0F5A17F1ADDC8
:101A00001698B0F5C77F16DA1598B0F5837F12DD0A
:101A10001598B0F5957F0EDA0C9804280ADA38216B
:101A20000EAA0C9811540C98401CC0B20C9047E2BE
:101A300067E260E260E21698B0F5C97F18DD16989B
:101A4000B0F5EF7F14DA1598B0F5837F10DD1598A7
:101A5000B0F5957F0CDA0C98042808DA39210EAA23
:101A60000C9811540C98401CC0B20C9028E243E230
:101A70001698B0F5A17F18DD1698B0F5C77F14DA77
:101A80001598B0F5977F10DD1598B0F5A97F0CDAA1
:101A90000C98042808DA30210EAA0C9811540C98DE
:101AA000401CC0B20C900BE226E21698F2281FDD13
:101AB0001698B0F59F7F1BDA1598B0F5977F17DD64
:101AC0001598B0F5A97F13DA0C9800280FDD0C9853
:101AD00004280CDA0B9850B92E210EAA0C98115438
:101AE0000C98401CC0B20C9001200B90E8E103E27E
:101AF0001698B0F5F17F1CDD40F22E211698884231
:101B000017DA1598B62814DD1598DA2811DA0020AE
:101B1000179007E020210EAA179811541798401C1F
:101B2000C0B2179017980428F4DB00200C900B909B
:101B3000C6E11698B0F5F17F23DD40F22E2116980C
:101B400088421EDA1598DE281BDD1598B0F5817FD6
:101B500017DA0C9800280FDD0C98401EC0B20C90CC
:101B60000EA90C98085C2E2801D100200B90202192
:101B70000EAA0C981154A3E120210EAA0C9811541E
:101B80009EE11698B0F5F17F7EDD40F22E21169889
:101B9000884279DA1598B0F5837F75DD1598B0F530
:101BA000957F71DA13E0002017900AE00EA91798CC
:101BB000401C095C0EAA179811541798401CC0B21B
:101BC000179017980328F1DB20208DF83B009DF833
:101BD0003800302803D19DF839002E28E3D10EA813
:101BE00002F008FE0D90FA48FA49098850F82100E1
:101BF00001460A900D9806F089FE16D3F648F5497D
:101C0000098850F8210001460A900D9806F07EFFE1
:101C10000BD3F0480088022844D1F048C068014640
:101C20000A900D9806F072FF3CD20020179007E052
:101C300020210EAA179811541798401CC0B2179073
:101C400017980428F4DB00200C900B900120E44945
:101C50000880E4480288E4480188E44801F0BBFDBC
:101C6000DC48008806F076F902460B46CDE9020111
:101C700000204FF0804105F0CBF9CDE90601DC48AA
:101C8000006806F067F900E0EDE0CDE90401DDE968
:101C9000062305F007FFCDE9080106F017F9D4493E
:101CA0000860DFE0CD49CB4A12880D9841F8220048
:101CB0000020179012E00EA91798095CC54800880B
:101CC00000EB8000C94A02441798115420210EAA43
:101CD000179811541798401CC0B2179017980428F1
:101CE000E9DBBE480068C349099006F043FE4FF0A7
:101CF00083410A9006F028FDBF490860B748406854
:101D00004FF080410A9006F01FFDBB494860B34880
:101D10008068BA490A9006F02DFEB7498860AF483E
:101D2000C068B6490A9006F025FEB349C860AB48C2
:101D3000006901460A90B24806F006FDAE49086106
:101D4000084600680A9006F0C1FDAE490880AA481E
:101D500040680A9006F0BAFDAA494880A648806803
:101D60000A9006F0B3FDA7498880A348C0680A908E
:101D700006F0ACFDA349C8809F4800690A9006F0B0
:101D8000A5FDA049088101209F490870934800697A
:101D9000014609909D4806F0D7FC0A9006F096FD92
:101DA0009B4908608D4800689249089006F0E2FD62
:101DB0004FF08341099006F0C7FC0A9006F02AFC18
:101DC000944A03C2854840684FF08041099006F06C
:101DD000BBFC0A9006F01EFC8F4A03C241228D49CB
:101DE00003C900F064FB42228B4903C900F05FFB8A
:101DF0000020179022E0179800EB80007B49085CD8
:101E00000106179800EB8000784A1044407801EBF7
:101E10000041179800EB80001044807801EB00210E
:101E2000179800EB80001044C078014410AA17985E
:101E300042F820101798401CC0B217901798052838
:101E4000D9DB10A9002002F001FE00200C900B90BD
:101E50000120634908806348028863480188634819
:101E600001F0B9FC48E01698B0F5F17F28DD40F2AA
:101E70002E211698884223DA1598B0F5977F1FDD3A
:101E80001598B0F5A97F1BDA0020179007E02021F4
:101E90000EAA179811541798401CC0B217901798A3
:101EA0000428F4DB00200C900B9001204C490880A2
:101EB0004C4802884C4801884C4801F08CFC1BE0DF
:101EC000C82004F0E3FE00204523CDE90630089049
:101ED00009900EA81F213F22CDE90212CDE904107E
:101EE00005200090B2238E2240F22E210190F22094
:101EF00001F083FA00BF00BF00BF0421F12000F011
:101F0000F9FBFEF7E2BA10B50121444804F069FC80
:101F100050B10121414804F075FC0120404908708E
:101F200000213E4804F094F910BD10B501213D4850
:101F300004F057FC88B101213A4804F063FC3A48A8
:101F40000078401C38490870084600780F2804DDE6
:101F50000020087001203549087010BD10B501211E
:101F6000880704F03EFC002868D00121880704F0AF
:101F700049FC1C48008810F4805F04D02C4800689D
:101F8000401C2B49086022480068401E2849096807
:101F900088427BD2002026490860264801880088B4
:101FA00000F0B7F91749C88800EBD0714910224AF0
:101FB000127891FBF2F101F50041124A92881D4B13
:101FC0001B881A4491423ADA00200F4908704BE00E
:101FD0005804002094040020440400203004002011
:101FE000960400200E0000200C0000206C0400204D
:101FF000100000200000A040EC04002000802244DB
:102000000050C34700050020850400200000C8429E
:1020100098040020A0040020A8040020000800402C
:102020000200002000040040000000200500002005
:102030008C04002088040020B004002026E014490D
:10204000C88800EBD0714910124A127891FBF2F166
:10205000C1F500420E4989880F4B1B88591A8A42E4
:1020600002DD01200D4908700C48007838B108489D
:1020700080880949098808440749088006E004481F
:10208000808805490988081A0349088010BD0000A6
:1020900000050020B00400208804002085040020F2
:1020A000704700BFFEE700BFFEE700BFFEE700BFCE
:1020B000FEE770477047704770470000002100201E
:1020C000674A126842F48032654B1A6000BF644A66
:1020D000126802F40030491C10B9B1F5A06FF6D1B6
:1020E0005F4A126812F4003F01D0012000E0002096
:1020F000012842D15B4A126842F01002594B1A6023
:102100001A46126822F003021A601A46126842F058
:1021100002021A60524A5268514B5A601A4652687B
:102120005A601A46526842F480625A601A465268EF
:1021300022F47C125A601A46526842F4E8125A603D
:102140001A46126842F080721A6000BF444A126850
:1021500012F0007FFAD0424A526822F00302404B4C
:102160005A601A46526842F002025A6000BF3C4A66
:10217000526802F00C02082AF9D1704710B5FFF737
:102180009DFF10BD10B53648006840F0010034498D
:1021900008600846406834490840314948600846AC
:1021A0000068324908402E4908600846006820F45B
:1021B000802008600846406820F4FE0048604FF424
:1021C0001F008860FFF7DAFF4FF0006028490860C1
:1021D00010BD10B5002100200022214B5B6803F0E8
:1021E0000C0121B1042906D0082928D107E0214B90
:1021F000214C236027E01F4B1F4C236023E0184B2A
:102200005B6803F47010164B5B6803F480320223A2
:1022100003EB904022B9194B4343174C23600DE068
:102220000F4B5B6813F4003F04D0144B4343124C34
:10223000236003E00F4B43430F4C236003E00D4B3F
:102240000D4C236000BF00BF054B5B68C3F3031355
:102250000B4CE15C084B1B68CB40074C236010BD66
:1022600000100240002002400000FFF8FFFFF6FED1
:1022700008ED00E000127A00B404002000093D00DF
:10228000B80400200948804709480047FEE7FEE7F8
:10229000FEE7FEE7FEE7FEE7FEE7FEE7FEE7FEE716
:1022A00004480549054A064B70470000852100088F
:1022B0003101000838060020380C002038080020C2
:1022C0003808002008B50121102003F029FB4FF445
:1022D0007060ADF8000010208DF8030003208DF829
:1022E00002006946334803F049F808BD002032492E
:1022F00008603249C1F8A4014FF00100304908607C
:1023000001F1040108602C4908602C49C1F8A401BE
:10231000704710B502460B46FFF7E8FF102424E093
:1023200001202549086012F4004F02D024490860BA
:1023300002E00020224908604FF6FF7000EA4202E6
:1023400013F4004F03D001201E49086002E0002072
:102350001C4908604FF6FF7000EA43034FF000008D
:1023600015490860A4F10100C4B2002CD8DC10BDEE
:1023700010B5FFF7A7FF4FF400410846FFF7C9FF6C
:1023800010BD10B501200C4908604FF000000B494A
:10239000C1F8A4014FF0010009490860094908602B
:1023A0004FF00000044908604FF0050004F04BFCBA
:1023B00010BD000000100140A00122420000224296
:1023C000A8012242AC01224208B50121102003F0ED
:1023D000A7FA1F20ADF8000010208DF8030003209D
:1023E0008DF802006946574802F0C8FF08BD70B575
:1023F000044624020020544908604FF00A0004F00B
:1024000022FC00251BE001205049086014F0004F19
:1024100003D001F10401086002E000204C4908608B
:102420004FEA44044FF00A0004F00DFC0020474935
:1024300008604FF00A0004F006FC681CC5B2182DB5
:10244000E1DB0A2004F0FFFB01203F49086070BD7A
:1024500010B501203C4908604FF000003D49C1F82B
:1024600090014FF001003C4908604FF000003849EE
:102470000860364908604FF0640004F0E4FB012076
:102480003449C1F890014FF4E010FFF7B0FF334832
:10249000FFF7ADFF3248FFF7AAFF3248FFF7A7FF6B
:1024A0003148FFF7A4FF3148FFF7A1FF10BD2DE928
:1024B000FF4705460E4691464FF000024FF080431D
:1024C0002846314605F094FE1DD80022284B2846A8
:1024D000314605F053FD16D80022264B28463146DA
:1024E00005F088FD0022224BCDE9000105F096FBA6
:1024F00007460022204B05F0A3FFCDE9020105F0BD
:10250000E5FC84B200E01BE0B9F1410F03D10020EB
:1025100000EB041A08E0B9F1420F04D14FF4003087
:1025200000EB041A00E00BE05046FFF760FF0020CC
:10253000094908604FF001000649C1F88C0100BF4D
:10254000BDE8FF8700100140800122428401224241
:1025500088012242000022428C0122420100080030
:1025600001000A000D0019001500100001001D00F7
:10257000000024400000B0400000F03F08B50121F9
:10258000082003F0CDF94FF49A40ADF80000102078
:102590008DF8030003208DF802006946FE4802F022
:1025A000EDFE4FF44850ADF8000004208DF8030014
:1025B0006946F94802F0E2FE08BD10B502E00120CC
:1025C00004F064FBF54800680128F8D010BD012034
:1025D000F3490860F349C1F8A801F349086070475E
:1025E00070B50446082500BF14F0800F03D0012009
:1025F000EE49086002E00020EC4908604FF0050059
:1026000004F021FB6006040E0020E54908604FF04D
:10261000050004F018FB0120E249C1F8AC01681E76
:10262000C0B20500E0D170BD70B50024082500BF20
:102630000020DB4908604FF00C0004F004FB60064A
:10264000040ED848D0F8240108B1601CC4B201209F
:10265000D34908604FF00C0004F0F5FA681EC0B2D0
:102660000500E5D1204670BD10B504460120CC49D7
:102670000860CC49C1F8A8014FF00000CA490860C1
:102680004FF08000FFF7ACFF2046FFF7A9FF0120C5
:10269000C449C1F8A00110BD10B504460120C049CD
:1026A0000860C049C1F8A8014FF00000BE490860A9
:1026B000FFF796FF2046FFF793FF0120B949C1F8C5
:1026C000A00110BD10B50120B5490860B549C1F899
:1026D00024014FF00000B44908604FF04000FFF7BC
:1026E0007FFFFFF7A1FF04460120AE49C1F8A0011A
:1026F000204610BD70B505460C462846FFF7B4FFCE
:102700002046FFF7C9FF70BD10B50120A44908603D
:102710004FF00000A349C1F8A0014FF0C000FFF73F
:102720005FFFFFF781FF044601209F4908602046B4
:1027300010BD10B500209E4908604FF0010004F064
:10274000A5FA01209749C1F8B80104F09FFA10BD1D
:1027500010B500BFFFF7D8FF00F080018029F9D045
:1027600010BD10B500BFFFF7CFFF00F040014029BA
:10277000F9D010BD10B500BFBF20FFF775FFFFF700
:10278000A1FF044614F0010FF6D110BD10B588204A
:10279000FFF76AFF0A20FFF77FFF012004F076FAB7
:1027A0008920FFF761FF0220FFF776FF012004F088
:1027B0006DFA10BD2DE9F04104460D4616461F4640
:1027C00004F0FF083020FFF74FFF4046FFF764FF9B
:1027D0004FEA24283120FFF747FF4046FFF75CFF10
:1027E00005F0FF083420FFF73FFF4046FFF754FF96
:1027F0004FEA25283520FFF737FF4046FFF74CFF0B
:1028000006F0FF083220FFF72FFF4046FFF744FF96
:102810004FEA26283320FFF727FF4046FFF73CFF0B
:1028200007F0FF083620FFF71FFF4046FFF734FF91
:102830004FEA27283720FFF717FF4046FFF72CFF06
:10284000BDE8F08110B504466020FFF70DFFE012EF
:10285000FFF722FF6120FFF707FFC4F34710FFF7E0
:102860001BFF6220FFF700FFE0B2FFF715FF10BD6E
:1028700010B504466320FFF7F7FEE012FFF70CFFE8
:102880006420FFF7F1FEC4F34710FFF705FF652052
:10289000FFF7EAFEE0B2FFF7FFFE10BD10B5002023
:1028A000434908604FF00A0004F0F0F901203D4967
:1028B000C1F8B801FFF76AFF1020FFF7D5FE0C2022
:1028C000FFF7EAFE0420FFF7CFFE8120FFF7E4FECA
:1028D000012004F0DBF91420FFF7C6FE6320FFF7A8
:1028E000DBFE1520FFF7C0FE0320FFF7D5FE162004
:1028F000FFF7BAFE0320FFF7CFFE1720FFF7B4FE65
:102900000220FFF7C9FE1820FFF7AEFE0020FFF7F8
:10291000C3FE1920FFF7A8FEDF20FFF7BDFE1A2037
:10292000FFF7A2FE0120FFF7B7FE1B20FFF79CFE7A
:102930001420FFF7B1FE1C20FFF796FE0020FFF7E2
:10294000ABFE1D20FFF790FE0620FFF7A5FE1E2020
:10295000FFF78AFE0020FFF79FFE1F20FFF784FE8F
:102960000120FFF799FE2920FFF77EFE0220FFF7E6
:1029700093FE40F2DF13002240F21F311046FFF7B2
:1029800019FF8A20FFF770FE8020FFF785FE8A205E
:10299000FFF76AFE81200DE0000C014030812142EA
:1029A000AC81214200802142A0812142A8812142A4
:1029B000B8812142FFF770FE8B20FFF755FEFF2004
:1029C000FFF76AFE4FF6FF70FFF752FF1F20FFF779
:1029D00039FF80210120FFF78DFE40F2DF13002236
:1029E00040F21F311046FFF7E5FE80218E20FFF7F1
:1029F00081FE20212120FFF77DFE80212F20FFF77F
:102A000079FEFFF7A5FEB2217020FFF773FE0521C6
:102A10007120FFF76FFE0421F020FFF76BFE042109
:102A2000F120FFF767FE10BD10B50446802140205D
:102A3000FFF760FE0220FFF717FE03E02078FFF7A4
:102A40002BFE641C20780028F8D110BD70B5044618
:102A50000D46E6B22A20FFF707FE3046FFF71CFEC0
:102A600026122B20FFF700FE3046FFF715FEEEB2D0
:102A70002C20FFF7F9FD3046FFF70EFE2E122D2019
:102A8000FFF7F2FD3046FFF707FE70BD70B5064652
:102A90000C4615466320FFF7E7FD3046FFF7FCFDC7
:102AA0006420FFF7E1FD2046FFF7F6FD6520FFF704
:102AB000DBFD2846FFF7F0FD70BD2DE9F05F06460F
:102AC0000F46154698460AAC94E8100E43462A462F
:102AD00039463046FFF76EFEC0218E20FFF70AFE12
:102AE000012004F0D3F849462220FFF703FE59469F
:102AF00050460E9AFFF7CAFF29463046FFF7A6FF59
:102B000080214020FFF7F6FD0220FFF7ADFD03E036
:102B10002078FFF7C1FD641C20780028F8D140F22E
:102B2000DF13002240F21F311046FFF743FEBDE8DD
:102B3000F09F2DE9F05F06460F46154698460AAC11
:102B400094E8100E43462A4639463046FFF732FED7
:102B5000012004F09BF849462220FFF7CBFD59469F
:102B600050460E9AFFF792FF29463046FFF76EFF58
:102B700080214020FFF7BEFD0220FFF775FD03E036
:102B80002078FFF789FD641C20780028F8D140F2F6
:102B9000DF13002240F21F311046FFF70BFEBDE8A5
:102BA000F09F70B506460C4615466020FFF75CFDA9
:102BB0003046FFF771FD6120FFF756FD2046FFF715
:102BC0006BFD6220FFF750FD2846FFF765FD70BDE5
:102BD00010B5F120FFF748FDFFF774FD044604F03F
:102BE0000400042801D1012010BD0020FCE770B5CD
:102BF000012004F04BF87420FFF736FDFFF762FD6B
:102C000000F00F067220FFF72FFDFFF75BFD314646
:102C100060F39F010C46A4F13C0000EB80004FEAFA
:102C200080004FF01701B0FBF1F54FF004014FF0B9
:102C3000F100FFF75FFDA8B270BD70B5012004F090
:102C400025F87420FFF710FDFFF73CFD00F00F049E
:102C50007320FFF709FDFFF735FD800000EB9406B8
:102C6000A6F16E0080000721B0FBF1F50421F120F0
:102C7000FFF740FDA8B270BD70B504460D46E6B240
:102C80004620FFF7F1FC3046FFF706FD26124720ED
:102C9000FFF7EAFC3046FFF7FFFCEEB24820FFF7F3
:102CA000E3FC3046FFF7F8FC2E124920FFF7DCFC6E
:102CB0003046FFF7F1FC70BD2DE9F04186B00120F0
:102CC00003F0E4FF7420FFF7CFFCFFF7FBFC00F0FC
:102CD0000F067220FFF7C8FCFFF7F4FC314660F3E3
:102CE0009F010C464FF07300FFF7BEFCFFF7EAFCB4
:102CF000800000EB96054FF47A70B4FBF0F003907F
:102D00004FF47A70B4FBF0F100FB11406421B0FB8A
:102D1000F1F004906420B4FBF0F100FB11400A21B3
:102D2000B0FBF1F005900A20B4FBF0F100FB11407C
:102D30004FF47A70B5FBF0F000904FF47A70B5FB69
:102D4000F0F100FB11506421B0FBF1F00190642020
:102D5000B5FBF0F100FB11500A21B0FBF1F002903D
:102D60000A20B5FBF0F100FB11503C214FF4AF708D
:102D7000FFF76CFE0220FFF777FCFEA0FFF754FE82
:102D8000039941F03001C8B20391FFF785FC049923
:102D900041F03001C8B20491FFF77EFC059941F083
:102DA0003001C8B20591FFF777FCC9B241F030009D
:102DB000FFF772FC8C214FF4C870FFF747FE02202A
:102DC000FFF752FCEDA0FFF72FFE009941F0300114
:102DD000C8B20091FFF760FC019941F03001C8B220
:102DE0000191FFF759FC029941F03001C8B20291FC
:102DF000FFF752FCC9B241F03000FFF74DFC002153
:102E00004020FFF777FCA4F13C0000EB800080003D
:102E10001721B0FBF1F7A5F16E0080000721B0FB90
:102E2000F1F81FFA88F1B8B2FFF726FF0220FFF78A
:102E30001BFCE020FFF730FCE020FFF72DFC08F141
:102E4000010291B2B8B2FFF717FF0220FFF70CFCA6
:102E5000E020FFF721FCE020FFF71EFC0421F12019
:102E6000FFF748FC06B0BDE8F0812DE9F0410446CB
:102E70000D4616461F4604F0FF083820FFF7F4FB06
:102E80004046FFF709FC4FEA24283920FFF7ECFB06
:102E90004046FFF701FC05F0FF083C20FFF7E4FB8C
:102EA0004046FFF7F9FB4FEA25283D20FFF7DCFB02
:102EB0004046FFF7F1FB06F0FF083A20FFF7D4FB8E
:102EC0004046FFF7E9FB4FEA26283B20FFF7CCFB03
:102ED0004046FFF7E1FB07F0FF083E20FFF7C4FB89
:102EE0004046FFF7D9FB4FEA27283F20FFF7BCFBFE
:102EF0004046FFF7D1FBBDE8F08170B504460D46B2
:102F0000E6B22420FFF7B0FB3046FFF7C5FB2612E0
:102F10002520FFF7A9FB3046FFF7BEFBEEB22620C7
:102F2000FFF7A2FB3046FFF7B7FB2E122720FFF773
:102F30009BFB3046FFF7B0FB70BD2DE9F041044626
:102F40000D461646E7B29920FFF78EFB3846FFF78D
:102F5000A3FB27129A20FFF787FB3846FFF79CFB5D
:102F6000EFB29B20FFF780FB3846FFF795FB2F124F
:102F70009C20FFF779FB3846FFF78EFBF7B29D20C8
:102F8000FFF772FB3846FFF787FB9020FFF76CFBDB
:102F90004020FFF781FBBDE8F0812DE9F0470446B2
:102FA0000D4616461F46DDE908894A464146384621
:102FB000FFF76CFD04F0FF0A9920FFF755FB504620
:102FC000FFF76AFB4FEA242A9A20FFF74DFB504691
:102FD000FFF762FB05F0FF0A9B20FFF745FB504619
:102FE000FFF75AFB4FEA252A9C20FFF73DFB50468E
:102FF000FFF752FB06F0FF0A9D20FFF735FB504616
:10300000FFF74AFB9020FFF72FFB6020FFF744FB00
:10301000BDE8F0872DE9F04F8BB005460C4616460B
:1030200099464846DDE91412FFF730FDE8B20A90F0
:103030009920FFF719FB0A98FFF72EFB28120A9038
:103040009A20FFF711FB0A98FFF726FBE0B20A90DF
:103050009B20FFF709FB0A98FFF71EFB20120A903E
:103060009C20FFF701FB0A98FFF716FBF0B20A90CD
:103070009D20FFF7F9FA0A98FFF70EFB9020FFF763
:10308000F3FA6020FFF708FB304604F063FF824646
:103090004FF066323B4B04F0ADFFCDE90201204614
:1030A00004F058FF0746DDE9022304F0FBFCCDE9FC
:1030B000040104F00BFF80B20990304604F04AFF8F
:1030C00007464FF066322F4B04F094FFCDE9020122
:1030D000204604F03FFF8246DDE9022305F0B0F907
:1030E000CDE9040104F0F2FE80B20890304604F00D
:1030F00031FF4FF06632234BCDE9020104F07AFF35
:1031000007468846284604F025FF82463A4643464D
:1031100004F0C8FCCDE9040104F0D8FE80B20790A9
:10312000304604F017FF07464FF06632154B04F0A7
:1031300061FFCDE90201284604F00CFF8246DDE97B
:10314000022305F07DF9CDE9040104F0BFFE80B251
:103150000690DDE91723DDE91910CDE90123CDE95A
:1031600003101698009006A80FC8FFF7A6FC0BB036
:10317000BDE8F08F58203D200000000059203D2080
:10318000000000006666E63F2DE9F04104460D466A
:1031900016461F4604F0FF08A520FFF765FA4046D3
:1031A000FFF77AFA4FEA2428A620FFF75DFA404697
:1031B000FFF772FA05F0FF08A720FFF755FA40461F
:1031C000FFF76AFA4FEA2528A820FFF74DFA404694
:1031D000FFF762FA06F0FF08A120FFF745FA404624
:1031E000FFF75AFA4FEA2628A220FFF73DFA404699
:1031F000FFF752FA07F0FF08A320FFF735FA404621
:10320000FFF74AFA4FEA2728A420FFF72DFA404695
:10321000FFF742FAA020FFF727FA8020FFF73CFAD9
:10322000BDE8F0812DE9F04704460D4616461F46DD
:10323000DDE9088904F0FF0A9120FFF715FA5046EE
:10324000FFF72AFA4FEA242A9220FFF70DFA504698
:10325000FFF722FA05F0FF0A9520FFF705FA50461E
:10326000FFF71AFA4FEA252A9620FFF7FDF9504694
:10327000FFF712FA06F0FF0A9320FFF7F5F9504620
:10328000FFF70AFA4FEA262A9420FFF7EDF9504695
:10329000FFF702FA07F0FF0A9720FFF7E5F950461B
:1032A000FFF7FAF94FEA272A9820FFF7DDF9504691
:1032B000FFF7F2F908F0FF0AA120FFF7D5F9504611
:1032C000FFF7EAF94FEA282AA220FFF7CDF9504686
:1032D000FFF7E2F909F0FF0AA320FFF7C5F950460E
:1032E000FFF7DAF94FEA292AA420FFF7BDF9504683
:1032F000FFF7D2F9A020FFF7B7F9A020FFF7CCF92C
:10330000BDE8F0872DE9F84F04460D4616461F46E6
:10331000DDE90CABDDE90A89594650460E9AFFF704
:10332000B5FBE0B200909120FFF79EF90098FFF7FF
:10333000B3F9201200909220FFF796F90098FFF75A
:10334000ABF9E8B200909520FFF78EF90098FFF7EF
:10335000A3F9281200909620FFF786F90098FFF74E
:103360009BF9F0B200909320FFF77EF90098FFF7E9
:1033700093F9301200909420FFF776F90098FFF748
:103380008BF9F8B200909720FFF76EF90098FFF7DD
:1033900083F9381200909820FFF766F90098FFF73C
:1033A0007BF908F0FF000090A120FFF75DF900987D
:1033B000FFF772F94FEA28200090A220FFF754F996
:1033C0000098FFF769F909F0FF000090A320FFF7CC
:1033D0004BF90098FFF760F94FEA29200090A420EC
:1033E000FFF742F90098FFF757F9A020FFF73CF9E3
:1033F000E020FFF751F9BDE8F88F2DE9F84F0446BA
:10340000884615469946DDE90B7BDDF83CA00A9E0F
:103410005846DDE90D12FFF739FBE0B2009091202C
:10342000FFF722F90098FFF737F920120090922059
:10343000FFF71AF90098FFF72FF908F0FF00009046
:103440009520FFF711F90098FFF726F94FEA282099
:1034500000909620FFF708F90098FFF71DF9E8B2F1
:1034600000909320FFF700F90098FFF715F9281254
:1034700000909420FFF7F8F80098FFF70DF909F095
:10348000FF0000909720FFF7EFF80098FFF704F98E
:103490004FEA292000909820FFF7E6F80098FFF700
:1034A000FBF8F0B20090A120FFF7DEF80098FFF7DC
:1034B000F3F830120090A220FFF7D6F80098FFF73B
:1034C000EBF8F8B20090A320FFF7CEF80098FFF7D2
:1034D000E3F838120090A420FFF7C6F80098FFF731
:1034E000DBF8A020FFF7C0F8E020FFF7D5F8A9EB44
:1034F000070C1FFA8CF305EB070C1FFA8CF2A8EBF4
:10350000060C1FFA8CF104EB060C1FFA8CF0FFF787
:1035100051F922201099FFF7EDF811A807C8FFF71D
:10352000B5FAEA1991B2A21990B2FFF78FFA802189
:103530004020FFF7DFF80220FFF796F805E09AF841
:103540000000FFF7A9F80AF1010A9AF80000002824
:10355000F5D140F2DF13002240F21F311046FFF791
:1035600029F9BDE8F88F2DE9F04104460D461646CD
:103570001F4604F0FF089120FFF776F84046FFF75A
:103580008BF84FEA24289220FFF76EF84046FFF7A9
:1035900083F805F0FF089520FFF766F84046FFF72F
:1035A0007BF84FEA25289620FFF75EF84046FFF7A4
:1035B00073F806F0FF089320FFF756F84046FFF730
:1035C0006BF84FEA26289420FFF74EF84046FFF7A5
:1035D00063F807F0FF089720FFF746F84046FFF72B
:1035E0005BF84FEA27289820FFF73EF84046FFF7A0
:1035F00053F89020FFF738F88020FFF74DF8BDE82A
:10360000F08170B504460D46E6B2A920FFF72CF80C
:103610003046FFF741F82612AA20FFF725F830467A
:10362000FFF73AF8EEB2AB20FFF71EF83046FFF78F
:1036300033F82E12AC20FFF717F83046FFF72CF8BE
:1036400070BD70B504460D461646B420FFF70CF861
:10365000E0B2FFF721F8B520FFF706F82012FFF7D8
:103660001BF8B620FFF700F8E8B2FFF715F8B7200F
:10367000FEF7FAFF2812FFF70FF8B820FEF7F4FF65
:10368000F0B2FFF709F8B920FEF7EEFF3012FFF7AE
:1036900003F870BD10B50446B020FEF7E5FFE0B2B8
:1036A000FEF7FAFFB120FEF7DFFFC4F30720FEF7B5
:1036B000F3FFB220FEF7D8FFC4F30740FEF7ECFF9C
:1036C000B320FEF7D1FF200EFEF7E6FF10BD70B568
:1036D000044600210620FFF70DF887210520FFF79B
:1036E00009F825460221BF20FFF704F840F2DF1356
:1036F000002240F21F311046FFF75CF80021084617
:10370000FFF7BAFA691EFE4A01FB02F0FFF7C2FF9B
:103710004FF448724FF4F0711046FFF792FF032107
:10372000BF20FEF7E7FFFFF725F870BD00B58BB0AF
:1037300040F2DF13002240F21F311046FFF73AF843
:103740004FF6FF70FFF794F81F20FFF77BF88021FA
:103750008E20FEF7CFFF00202E211C224A23CDE928
:103760000132CDE90310E7A0BE23792240F27A317D
:1037700000906E20FFF7A1F900204523CDE9063027
:1037800008900990E5A006211C221723CDE90232FA
:10379000CDE904100520009083014FF48C724FF4A2
:1037A000EB7101904FF4A570FFF727FE00202E214A
:1037B0001C224523CDE90132CDE90310DAA04FF4F4
:1037C000DC734FF4BE724FF420710090A020FFF71D
:1037D00074F90BB000BD07B58AB040F2DF130022C8
:1037E00040F21F311046FEF7E5FF80218E20FEF7E4
:1037F00081FF0A2003F04AFA00202E211C22052313
:10380000CDE90132CDE90310CFA0282308224FF4DF
:1038100012710090D820FFF750F90A2000909323EE
:10382000352240F21F3101900020FFF7FBFC1F20E2
:103830003F211E224523CDE90632CDE90810C8A05C
:10384000012121221723CDE90232CDE90410032002
:103850000090882340224B2101900520FFF7CDFDE9
:103860000B9810F4004F19D01D203D211F22452335
:10387000CDE90632CDE90810BCA000212022CDE917
:103880000212CDE904100220032187234122CDE951
:1038900000109B215520FFF7B0FD18E01D203D21B1
:1038A0001F224523CDE90632CDE90810B2A0002140
:1038B0001F23CDE90231CDE9041002200321872323
:1038C0004122CDE900109B215520FFF796FD0B9872
:1038D00010F4804F19D01D203D211F224523CDE932
:1038E0000632CDE90810A7A000212022CDE902125E
:1038F000CDE904100220032187234122CDE90010E5
:10390000EB21A520FFF779FD18E01D203D211F22A6
:103910004523CDE90632CDE908109DA000211F23E3
:10392000CDE90231CDE90410022003218723412291
:10393000CDE90010EB21A520FFF75FFD0B9810F4F7
:10394000005F1AD01D203D211F224523CDE90632FC
:10395000CDE9081091A000212022CDE90212CDE985
:1039600004100220032187234122CDE9001040F2F8
:103970003B11F520FFF741FD19E01D203D211F22DD
:103980004523CDE90632CDE9081087A000211F2389
:10399000CDE90231CDE90410022003218723412221
:1039A000CDE9001040F23B11F520FFF726FD0A207B
:1039B0000090F723992240F21F3101900020FFF779
:1039C00031FC1F203F211E224523CDE90632CDE9DF
:1039D000081078A0012121221723CDE90232CDE978
:1039E000041003200090EC23A4224B210190052019
:1039F000FFF703FD1D203D211F224523CDE90132A4
:103A0000CDE903106EA0C323A02240F21F31009025
:103A10005A20FFF752F81D203D211F224523CDE9F2
:103A20000132CDE9031072A0F023CD2240F21F3104
:103A300000905A20FFF741F81D203D211F22452309
:103A4000CDE90132CDE903100A98F023CD22CA2135
:103A500000905A20FFF731F81D203D211F224523F9
:103A6000CDE90132CDE903100A98401DF023CD22A3
:103A70004FF49D710090EA20FFF71FF81D203D21B3
:103A80001F224523CDE90132CDE903100A980A30FF
:103A9000F023CD224FF4ED7100904FF4BD70FFF78D
:103AA0000CF81D203D211F224523CDE90132CDE92F
:103AB00003100A980F30F023CD2240F26A210090C3
:103AC00040F20A20FEF7F9FF1D203D211F22452369
:103AD000CDE90132CDE903100A981430F023CD224C
:103AE00040F2EA21009040F29A20FEF7E6FF9B2385
:103AF0001A4640F21B315520FFF735FDC8238FE0F1
:103B000000B80B0020432D434C33303020D0CDBCC7
:103B1000A4B9E2C7E5CFB4C9E8B1B800B5E3BBF7D3
:103B2000BCCCD0F800000000CEE4BABACAD0BFAD19
:103B3000C8F0B5CFBCA4B9E2BCBCCAF5D3D0CFDEC7
:103B4000B9ABCBBE00000000432D434C33303020D6
:103B5000D0CDBCA4B9E2C7E5CFB4C9E8B1B8000084
:103B6000D7B4CCACD6B8CABE00000000C0E4C8B41C
:103B7000D5FDB3A300000000C0E4C8B4B9CAD5CFD6
:103B800000000000C6F8D1B9D5FDB3A300000000C5
:103B9000C6F8D1B920B5CD2000000000B5F72051FE
:103BA000D5FDB3A300000000B5F72051B9CAD5CFA9
:103BB00000000000B2CECAFDC9E8D6C30000000074
:103BC000BCA4B9E2B5E7C1F720BCA4B9E2C6B5C24E
:103BD000CA20C9A8C3E8BCE4BEE020C9A8C3E8B7AE
:103BE000F9C3E620C9A8C3E8C6B5C2CA00000000F0
:103BF00020202020202020412020202020206B4831
:103C00007A202020202020206D6D202020202020C0
:103C1000206D6D2020202020206B487A00000000BD
:103C20001A4640F21B315520FFF79DFCF5231A463A
:103C300040F21B315520FFF796FCF5239B225521BE
:103C40000846FFF790FCF5239B22E2210846FFF788
:103C50008AFCF5239B224FF4B9710846FFF783FCD9
:103C6000F5239B2240F202210846FFF77CFCF52356
:103C70009B2240F292210846FFF775FCF5239B2218
:103C800040F21B310846FFF76EFC0A20009040F21C
:103C90005B13FD2240F21F3101900020FFF7C2FAB2
:103CA0001F203F211E224523CDE90632CDE9081011
:103CB000FEA0012121221723CDE90232CDE9041013
:103CC000072003214FF4AA734FF48272CDE900104C
:103CD0004B210520FFF791FB0C9810F4004F1AD0F0
:103CE0001D203D211F224523CDE90632CDE90810D4
:103CF000F1A000212022CDE90212CDE90410032019
:103D000000904FF495734FF48172DC2101905020A4
:103D1000FFF773FB19E01D203D211F224523CDE94C
:103D20000632CDE90810E7A000211F23CDE90231BA
:103D3000CDE90410032000904FF495734FF4817285
:103D4000DC2101905020FFF758FB0C9810F4804FB5
:103D50001AD01D203D211F224523CDE90632CDE991
:103D60000810DBA000212022CDE90212CDE90410C9
:103D7000032000904FF4AB734FF49772DC21019055
:103D80005020FFF73AFB19E01D203D211F2245235B
:103D9000CDE90632CDE90810D0A000211F23CDE9DE
:103DA0000231CDE90410032000904FF4AB734FF4BF
:103DB0009772DC2101905020FFF71FFB0C9810F444
:103DC000005F1AD01D203D211F224523CDE9063278
:103DD000CDE90810C4A00021CDE90212CDE90410FC
:103DE000032000904FF495734FF4817240F26D11EF
:103DF0000190E120FFF701FB1AE01D203D211F2269
:103E00004523CDE90632CDE90810BAA000211F23D1
:103E1000CDE90231CDE90410032000904FF49573F1
:103E20004FF4817240F26D110190E120FFF7E5FA45
:103E30000C9810F4805F1BD01D203D211F224523CC
:103E4000CDE90632CDE90810ADA000212022CDE950
:103E50000212CDE90410032000904FF4AB734FF42D
:103E6000977240F26D110190E120FFF7C6FA1AE057
:103E70001D203D211F224523CDE90632CDE9081042
:103E8000A2A000211F23CDE90231CDE904100320B7
:103E900000904FF4AB734FF4977240F26D110190A4
:103EA000E120FFF7AAFA0C9810F4006F1CD01D2037
:103EB0003D211F224523CDE90632CDE9081096A009
:103EC00000212022CDE90212CDE904100320009048
:103ED0004FF495734FF481724FF4FF7101904FF4DA
:103EE000B970FFF78AFA1BE01D203D211F224523F0
:103EF000CDE90632CDE908108AA000211F23CDE9C3
:103F00000231CDE90410032000904FF495734FF473
:103F100081724FF4FF7101904FF4B970FFF76DFAA1
:103F20000C9810F4806F1CD01D203D211F224523CA
:103F3000CDE90632CDE908107DA000212022CDE98F
:103F40000212CDE90410032000904FF4AB734FF43C
:103F500097724FF4FF7101904FF4B970FFF74DFA6B
:103F60001BE01D203D211F224523CDE90632CDE96E
:103F7000081072A000211F23CDE90231CDE9041001
:103F8000032000904FF4AB734FF497724FF4FF711E
:103F900001904FF4B970FFF730FA0C9810F4007FDD
:103FA0001CD01D203D211F224523CDE90632CDE93D
:103FB000081065A000212022CDE90212CDE90410ED
:103FC000032000904FF495734FF4817240F28F21DB
:103FD000019040F20320FFF710FA1BE01D203D2165
:103FE0001F224523CDE90632CDE9081059A0002152
:103FF0001F23CDE90231CDE90410032000904FF4D6
:1040000095734FF4817240F28F21019040F20320AA
:10401000FFF7F3F90C9810F4807F1CD01D203D2190
:104020001F224523CDE90632CDE908104CA000211E
:104030002022CDE90212CDE90410032000904FF4B4
:10404000AB734FF4977240F28F21019040F203203E
:10405000FFF7D3F91BE01D203D211F224523CDE9A9
:104060000632CDE9081041A000211F23CDE902311D
:10407000CDE90410032000904FF4AB734FF4977216
:1040800040F28F21019040F20320FFF7B6F91D2086
:104090003D211F224523CDE90632CDE9081036A087
:1040A0000A2116220C23CDE902326BE0B2D9D7F7F0
:1040B000BDE7C3E600000000D6C6C0E4CDA3D6B974
:1040C00000000000D6C6C0E4C6F4B6AF0000000091
:1040D000B5F72051CDA3D6B900000000B5F72051A7
:1040E000C6F4B6AF00000000B4B5C6F8CAA7C4DC79
:1040F00000000000B4B5C6F8CAB9C4DC0000000076
:10410000C9A8C3E8CDA3D6B900000000C9A8C3E878
:10411000C6F4B6AF00000000BCA4B9E2CDA3D6B986
:1041200000000000BCA4B9E2C6F4B6AF0000000075
:10413000B9E2D5A22020B9D800000000B9E2D5A28A
:104140002020BFAA00000000B3E9C6F8CDA3D6B96D
:1041500000000000B3E9C6F8C6F4B6AF00000000E6
:10416000D7D4B6AFCDA3D6B900000000D7D4B6AF30
:10417000D4CBD0D000000000CFB5CDB3B8B4CEBB07
:1041800000000000CDE90410092000904FF4AB734B
:104190004FF481724FF43A7101904FF42570FFF79C
:1041A0002CF90B98A0F57F41FF3911D10020202177
:1041B0000A23CDE901300093CDE9031040F2C71383
:1041C00040F295124FF42F716420FFF79BF810E036
:1041D00000201F220A23CDE90220019300930490BE
:1041E00040F2C71340F295124FF42F716420FFF78D
:1041F00089F80A2000904FF4E4734FF4CA7240F239
:10420000BD2101906320FFF70DF800202F211F2210
:104210004523CDE90632CDE90810FEA00521142280
:104220000292CDE9032105900720082140F2DB131B
:1042300040F28B12CDE9001055210520FFF7DDF883
:104240001D203D211F224523CDE90632CDE908106E
:10425000F3A00A2116220C23CDE90232CDE9041085
:104260000720082140F2DB1340F28B12CDE9001049
:1042700040F21B3140F2CB20FFF7BFF800202E2187
:104280001C22CDE90102CDE90310AFF2647040F2C7
:10429000DF134FF4E6724FF4007100904FF490700A
:1042A000FEF70BFC0DB000BDF0B58BB007460C4619
:1042B000002640F2DF13002240F21F311046FEF7C5
:1042C00079FA80218E20FEF715FA0A2002F0DEFC32
:1042D00000202E211C220523CDE90132CDE9031057
:1042E000D2A0322312224FF4007100901001FEF789
:1042F000E4FB0A20009040F2A913372240F21F315C
:1043000001900020FEF78EFF002525E014F0010F3C
:104310001FD000202E211C220523CDE90132CDE93A
:10432000031005EBC50000EB051007EB4000009003
:1043300006EB8600C000643083B206EB8600C00046
:104340003C3082B240F21E310220FEF7B6FB701CF8
:1043500086B26408681C85B2092DD7DB002045238E
:10436000CDE9063008900990B4A01F213F22CDE985
:104370000212CDE90410042002214FF4EB734FF434
:10438000D772CDE9001019464FF4A570FFF735F844
:1043900000204523CDE9063008900990AAA01F21EE
:1043A0003F22CDE90212CDE90410042002214FF48E
:1043B000EB734FF4D772CDE9001040F21F3140F299
:1043C000DA20FFF71AF80BB0F0BD00B58BB04FF450
:1043D000AA7364224FF40C71F020FEF7EBF91B2056
:1043E00037210A23CDE901300093CDE903104FF4C2
:1043F000AA7364224FF40C71F020FEF783FF0020B3
:104400002E211C224523CDE90132CDE9031090A0D5
:104410008C23692299000090F520FEF78AFB1F206B
:104420003F210523CDE901300093CDE90310B223EC
:104430008E2240F22E21F220FEF764FF912140F2FD
:104440002B20FEF703FBE0214020FEF753F900206C
:104450004523CDE906300890099080A01F213F2216
:10446000CDE90212CDE9041005200090DA23B6222E
:104470004FF49F710190F220FEF7BFFF002045230B
:10448000CDE906300890099075A01F213F22CDE9A3
:104490000212CDE90410052000904FF48173DE2252
:1044A0004FF49F710190F220FEF7A7FF00204523F3
:1044B000CDE90630089009906AA01F213F22CDE97E
:1044C0000212CDE90410052000904FF495734FF4CB
:1044D00083724FF49F710190F220FEF78EFF00204F
:1044E0004523CDE90630089009905FA01F213F22A7
:1044F000CDE90212CDE90410052000904FF4A97314
:104500004FF497724FF49F710190F220FEF775FF00
:1045100000204523CDE906300890099053A01F21C3
:104520003F22CDE90212CDE9041005200090DA23E4
:10453000B6224FF4C77101904FF4A170FEF75DFFF2
:1045400000204523CDE906300890099048A01F219E
:104550003F22CDE90212CDE90410052000904FF46E
:104560008173DE224FF4C77101904FF4A170FEF702
:1045700044FF00204523CDE90630089009903DA076
:104580001F213F22CDE90212CDE904100520009041
:104590004FF495734FF483724FF4C77101904FF449
:1045A000A170FEF72AFF00204523CDE906300890D0
:1045B000099031A01F213F22CDE90212CDE904105C
:1045C000052000904FF4A9734FF497724FF4C77110
:1045D00001904FF4A170FEF710FF00204523CDE9B4
:1045E00006300890099025A01F213F22CDE9021234
:1045F000CDE9041005200090DA23B6224FF4EF71C4
:1046000001904FF4C970FEF7F8FE00204523CDE974
:10461000063035E0B1A8BEAFD0C5CFA20000000083
:10462000B9CAD5CFB8B4CEBB00000000B1A82020D5
:10463000BEAF2020D0C52020CFA20000B1A8BEAFC1
:10464000B8B4CEBB00000000B7B5BBD80000000076
:10465000B2CECAFDCAE4C8EB000000002020310041
:10466000202034002020370020202E00202032007F
:10467000202035002020380020203000202033006A
:1046800008900990D0A01F213F22CDE90212CDE968
:104690000410052000904FF48173DE224FF4EF7177
:1046A00001904FF4C970FEF7A8FE00204523CDE924
:1046B000063008900990C5A01F213F22CDE90212C3
:1046C000CDE90410052000904FF495734FF48372E8
:1046D0004FF4EF7101904FF4C970FEF78EFE002089
:1046E0004523CDE9063008900990B9A01F213F224B
:1046F000CDE90212CDE90410052000904FF4A97312
:104700004FF497724FF4EF7101904FF4C970FEF7B8
:1047100074FE00204523CDE9063008900990ADA035
:104720001F213F22CDE90212CDE90410052000909F
:10473000DA23B62240F22E2101904FF4F170FEF7F9
:104740005CFE00204523CDE9063008900990A3A027
:104750001F213F22CDE90212CDE90410052000906F
:104760004FF48173DE2240F22E2101904FF4F1705C
:10477000FEF743FE00204523CDE90630089009905E
:1047800098A01F213F22CDE90212CDE90410052097
:1047900000904FF495734FF4837240F22E210190F4
:1047A0004FF4F170FEF729FE00204523CDE90630D5
:1047B00008900990AFF270101F213F22CDE902123C
:1047C000CDE90410052000904FF4A9734FF49772BF
:1047D00040F22E2101904FF4F170FEF70EFE40F2F0
:1047E0002B21F220FEF732F9E0214020FDF782FF75
:1047F0000BB000BD2DE9F04F87B005460026002024
:104800000590814604900024A0E0285D31280AD15B
:104810007649049804F0AEF807464FF07E5103F055
:1048200025FF049090E0285D32280AD16F49049852
:1048300004F0A0F807464FF0804103F017FF049002
:1048400082E0285D332809D16849049804F092F881
:104850000746674903F00AFF049075E0285D342895
:104860000AD16249049804F085F807464FF0814167
:1048700003F0FCFE049067E0285D352809D15B4910
:10488000049804F077F807465A4903F0EFFE0490C5
:104890005AE0285D362809D15449049804F06AF892
:1048A0000746554903F0E2FE04904DE0285D3728A5
:1048B00009D14E49049804F05DF807464F4903F0CA
:1048C000D5FE049040E0285D38280AD14749049875
:1048D00004F050F807464FF0824103F0C7FE049001
:1048E00032E0285D392809D14049049804F042F8A3
:1048F0000746434903F0BAFE049025E0285D3028BE
:1049000009D13A49049804F035F80746002103F02C
:10491000ADFE049018E0285D20280DD109F10100BA
:1049200000F0FF093149049804F024F807460021FB
:1049300003F09CFE049007E0285D2E2803D1C4F10B
:104940000400C6B200E004E0601CC4B2042CFFF610
:104950005CAF00BFD6B9484603F0FCFA8246524627
:104960000B460020274902F053FB0746884604986F
:1049700003F050FE3A464346CDE9000103F04EF9FC
:10498000CDE9020103F05CF8049018E0701E03F01A
:10499000CAFA07463A460B4600201A4902F038FB8D
:1049A000CDE90001049803F035FE8246DDE90023DD
:1049B00003F034F9CDE9020103F042F804900498C1
:1049C00007B0BDE8F08F000020203600202039001D
:1049D0002020200020636C72000000002064656CC1
:1049E00000000000206F6B2000000000000020414C
:1049F000000040400000A0400000C0400000E04037
:104A0000000010410000244070B504460D4602200D
:104A100000F07AF900F097F9352000F02CFC2348DB
:104A200000F0D6F92249087008460078042806D11B
:104A30001E496018294600F09BFA1D4908701C4861
:104A40000078042801D100F08AF970BD70B50546E0
:104A50000E46022000F058F900F075F9352000F0FC
:104A60000AFC124800F0B4F91149087000240FE064
:104A70000F480078042809D10C4A2A4402EB84002C
:104A800056F8241000F074FA09490870601CC4B28A
:104A9000052CEDDB06480078042801D100F05FF911
:104AA00070BD0146014A88587047000000F80708A9
:104AB000C804002070B505460C4645F2555000F07C
:104AC000A9FD284600F0A9FD204600F0A9FD00F050
:104AD000AAFD00F0ADFD70BD10B500F0A4FD10BD45
:104AE0007FB505460C460121022000F026FFADF8F7
:104AF0000850ADF804400020ADF80A001020ADF8D1
:104B0000060001A9344801F047F801221146324855
:104B100001F0B9FB1D208DF8000001208DF8010087
:104B200000208DF8020001208DF80300684600F097
:104B300082F87FBD7FB505460C460121084600F08E
:104B4000FCFEADF80850ADF804400020ADF80A00B6
:104B50001020ADF8060001A9800601F01DF8012221
:104B60001146900701F08FFB1C208DF800000020FB
:104B70008DF8010001208DF802008DF803006846D1
:104B800000F059F87FBD7FB505460C460121042091
:104B900000F0D3FEADF80850ADF804400020ADF8A9
:104BA0000A001020ADF8060001A90C4800F0F4FF3F
:104BB00001221146094801F066FB1E208DF8000015
:104BC00001208DF801008DF802008DF80300684681
:104BD00000F031F87FBD00000004004000080040F4
:104BE00008B501214FF4A07000F09AFEFF20ADF847
:104BF000000028208DF8030003208DF8020069468C
:104C0000084800F0BBFB40F6FF70ADF80000102034
:104C10008DF8030003208DF802006946024800F079
:104C2000ADFB08BD0018014000200140314901439F
:104C3000314A1160704770B5002100230F22C478FB
:104C40000CB32D4C246804F4E064C4F5E064210A3C
:104C5000C1F10403CA40447804FA03F18478144093
:104C600021430901254C0678A155047804F01F055D
:104C70000124AC4005786D114FF0E02606EB850568
:104C8000C5F8004109E0047804F01F050124AC4098
:104C90001B4D0678761145F8264070BD194A0A402A
:104CA0000243154B1B1F1A60704739B1124A121D7F
:104CB00012680243104B1B1D1A6006E00E4A121DBB
:104CC000126882430C4B1B1D1A607047042808D1E0
:104CD0004FF0E021096941F004014FF0E022116139
:104CE00007E04FF0E021096921F004014FF0E022D4
:104CF000116170470000FA050CED00E000E400E0EF
:104D000080E100E080FFFF1F01460020FE4A10689E
:104D100000F03800084310607047FB49096821F033
:104D20000801F94A11601146096801431160704792
:104D3000F549096821F01001F34A1160114609682C
:104D4000014311607047F148EF494860F0484860FE
:104D50007047EE48EC494860ED4848607047EA48C3
:104D6000006940F08000E84908617047E648006942
:104D700040F08000E449086170470420E249C968B6
:104D800011F0010F01D001200EE0DF49C96811F0D8
:104D9000040F01D0022007E0DB49C96811F0100FB1
:104DA00001D0032000E00420704700B50246042330
:104DB000FFF7E3FF034603E0FFF7DFFF0346521E62
:104DC000012B01D1002AF7D102B90523184600BDF5
:104DD00030B5044604254FF43020FFF7E6FF0546C2
:104DE000042D17D1C848006940F00200C649086187
:104DF00008464461006940F0400008614FF43020EB
:104E0000FFF7D3FF0546C048006941F6FD71084031
:104E1000BD490861284630BD10B504244FF4302048
:104E2000FFF7C3FF0446042C16D1B748006940F0D1
:104E30000400B54908610846006940F04000086177
:104E40004FF43020FFF7B1FF0446AF48006941F648
:104E5000FB710840AC490861204610BD00B5024610
:104E60000423FFF78AFF034603E0FFF786FF0346AC
:104E7000521E012B01D1002AF7D102B90523184691
:104E800000BD10B504244FF43020FFF7E7FF0446BF
:104E9000042C16D19C48006940F004009A4908612E
:104EA0000846006940F0400008614FF43020FFF7E9
:104EB000D5FF04469448006941F6FB7108409249C9
:104EC0000861204610BD00208F49C96911F0020F0A
:104ED00001D0012000E00020704730B5A525042452
:104EE000FFF7F1FF00B100254FF43020FFF75DFF21
:104EF0000446042C3AD185488349886084488860F8
:104F00000846006940F0200008610846006940F04A
:104F1000400008614FF43020FFF747FF0446042C9F
:104F20001BD17948006941F6DF7108407649086174
:104F30000846006940F01000086176480580E002EC
:104F4000FFF733FF0446052C10D06F48006941F687
:104F5000EF7108406C49086108E0052C06D06A48EA
:104F6000006941F6EF71084067490861204630BD8D
:104F7000F0B504460D4604260027F002FFF715FFA2
:104F80000646042E22D16048006940F001005E49C7
:104F900008612580F002FFF708FF0646042E0ED1B7
:104FA000A71C280C3880F002FFF7FFFE0646564883
:104FB000006941F6FE7108405349086106E0524815
:104FC000006941F6FE7108404F4908613046F0BD66
:104FD00070B504460D460426F002FFF7E6FE0646CD
:104FE000042E11D14848006940F00100464908618B
:104FF0002580F002FFF7D9FE06464348006941F6D6
:10500000FE71084040490861304670BD70B50546E4
:105010000E460424E002FFF7C8FE0446042C17D114
:105020003A48394988603A4888600846006940F043
:10503000100008612E80E002FFF7B7FE0446052C41
:1050400006D03148006941F6EF7108402E490861E9
:10505000204670BD2DE9F04304464FF6FF763746F3
:10506000B046B1460425E443E6B2C4F30727C4F3CF
:1050700007484FEA1469E802FFF797FE0546042D3A
:1050800040D122482049886021488860084600694C
:1050900040F010000861FF2E06D01E480830068040
:1050A000E802FFF782FE0546042D08D1FF2F06D047
:1050B00018480A300780E802FFF777FE0546042DFE
:1050C0000AD1B8F1FF0F07D012480C30A0F80080C9
:1050D000E802FFF76AFE0546042D0AD1B9F1FF0F79
:1050E00007D00C480E30A0F80090E802FFF75DFEF4
:1050F0000546052D06D00448006941F6EF710840C9
:1051000001490861284607E0002002402301674565
:10511000AB89EFCD00F8FF1FBDE8F08330B5054641
:1051200004244FF43020FFF740FE0446042C41D104
:105130005E485F4988605F4888600846006940F0C3
:10514000200008610846006940F0400008614FF403
:105150003020FFF72AFE0446042C22D1544800696F
:1051600041F6DF710840524908610846006940F085
:10517000100008611DB100204F49088002E0A52001
:105180004D4908804FF43020FFF70FFE0446052CF0
:1051900010D04748006941F6EF7108404449086162
:1051A00008E0052C06D04248006941F6DF7108404E
:1051B0003F490861204630BDF0B505460E4617460A
:1051C00004243A483A4988603A488860E002FFF788
:1051D000ECFD0446042C19D13548006940F010005C
:1051E0003349086147F0F800304328433249891CAD
:1051F0000880E002FFF7D9FD0446052C06D02C48B4
:10520000006941F6EF710840294908612046F0BD68
:105210002748C069800870472548006A7047002009
:105220002349096811F0200F01D0012000E000207F
:10523000704729B11E4A126902431D4B1A6104E0EE
:105240001B4A126982431A4B1A61704701460020BB
:10525000012908D1164AD26912F0010F01D00120AC
:1052600008E0002006E0124AD2680A4201D001207C
:1052700000E0002070470E49C860704704200C49C8
:10528000C96811F0010F01D001200EE00849C9687A
:1052900011F0040F01D0022007E00549C96811F0A0
:1052A000100F01D0032000E0042070472301674560
:1052B00000200240AB89EFCD00F8FF1F10B5044677
:1052C000CA48844208D10121042000F043FB002198
:1052D000042000F03FFB46E0C548844208D101218C
:1052E000082000F037FB0021082000F033FB3AE0F3
:1052F000C048844208D10121102000F02BFB00217E
:10530000102000F027FB2EE0BB48844208D1012189
:10531000202000F01FFB0021202000F01BFB22E0DA
:10532000B648844208D10121402000F013FB00213F
:10533000402000F00FFB16E0B148844208D1012163
:10534000802000F007FB0021802000F003FB0AE032
:10535000AC48844207D10121801500F0FBFA0021FE
:10536000A01500F0F7FA10BD10B50121084600F0B5
:10537000F1FA0021012000F0EDFA10BD2DE9F04115
:10538000024600250026002000230024002791F873
:1053900003C00CF00F0591F803C01CF0100F03D0F0
:1053A00091F802C04CEA050591F800C0BCF1000F6D
:1053B00031D0146800202BE04FF0010C0CFA00F300
:1053C000B1F800C00CEA03069E4220D183004FF0E2
:1053D0000F0C0CFA03F7BC4305FA03FC4CEA040477
:1053E00091F803C0BCF1280F06D14FF0010C0CFA64
:1053F00000FCC2F814C00AE091F803C0BCF1480FE9
:1054000005D14FF0010C0CFA00FCC2F810C0401C92
:105410000828D1D31460B1F800C0BCF1FF0F34DD0F
:10542000546800202EE000F1080C4FF0010808FA43
:105430000CF3B1F800C00CEA03069E4221D18300B0
:105440004FF00F0C0CFA03F7BC4305FA03FC4CEACF
:10545000040491F803C0BCF1280F05D100F1080C39
:1054600008FA0CF8C2F8148091F803C0BCF1480F98
:1054700007D100F1080C4FF0010808FA0CF8C2F847
:105480001080401C0828CED35460BDE8F0814FF650
:10549000FF710180022181700421C17070470246B2
:1054A000002093680B4201D0012000E000207047EB
:1054B0000146886880B2704702460020D3680B42DC
:1054C00001D0012000E0002070470146C86880B28A
:1054D000704701617047416170470AB1016100E0A6
:1054E00041617047C16070474FF480320A43826166
:1054F0008161826182698269704702460020424B65
:1055000018684FF68073184040EA021008433E4B7B
:10551000186070473D49C8617047F0B50A460023DE
:1055200000240021002500F00046B6F1004F02D112
:10553000354EF16901E0344E7168C0F3034583B222
:1055400000F44016B6F5401F08D121F070612E4ED0
:10555000766826F070662C4F7E6012E000F48016AC
:10556000B6F5801F06D1032606FA05F4A14341F0E3
:10557000706106E0460D360103FA06F6B14341F0CC
:10558000706122B1460D360103FA06F6314300F090
:105590000046B6F1004F02D11B4EF16101E01A4EF8
:1055A0007160F0BD30B500228B071C0F0F2303FA8A
:1055B00004F2154B08338C1053F824309343124CEB
:1055C00008348D1044F8253023468C1053F82430CD
:1055D0008C07240F00FA04F423430B4C08348D107D
:1055E00044F8253030BD0A49086070470008014082
:1055F000000C01400010014000140140001801405F
:10560000001C014000200140000001400000204239
:10561000DC0020420E49086070470D494860704721
:105620000B49886070474AF6AA200949086070470C
:105630004CF6CC4006490860704701460020044AF9
:10564000D2680A4201D0012000E00020704700002B
:1056500000300040DB48006840F00100D949086094
:1056600008464068D8490840D6494860084600685E
:10567000D6490840D34908600846006820F48020D5
:1056800008600846406820F4FE0048604FF41F00A0
:1056900088607047CB49096821F48031C94A11609C
:1056A0001146096821F480211160B0F5803F03D0D4
:1056B000B0F5802F0ED106E0C249096841F480316F
:1056C000C04A116007E0BF49096841F4A021BD4A02
:1056D000116000E000BF00BF704710B50146002216
:1056E000002300204A11012A02D1B64C236806E0AB
:1056F000022A02D1B34C236A01E0B24C636A01F082
:105700001F02012494401C4201D0012000E000202F
:1057100010BD70B500240025002600BF3120FFF722
:10572000DCFF0646641CB4F5A06F01D0002EF5D056
:105730003120FFF7D2FF08B1012500E000252846FF
:1057400070BD014600209F4A106820F0F80040EA32
:10575000C100106070479E490860704702460020F3
:10576000984B586820F47C1042EA01031843954B8B
:105770005860704796490866704701460020914A74
:10578000506820F003000843506070478D4840681F
:1057900000F00C007047014600208A4A506820F053
:1057A000F00008435060704701460020854A506869
:1057B00020F4E06008435060704701460020814AB1
:1057C000506820F4605040EAC1005060704729B131
:1057D0007C4A527A02437B4B5A7204E0794A527AED
:1057E0008243784B5A7270477A4908607047014685
:1057F0000020744A506820F44040084350607047CD
:105800000021754A11706F4A82F82010012802D0D9
:10581000042808D103E001216F4A117004E005213A
:105820006D4A117000E000BF00BF70476B4908600F
:1058300070476449096A0143624A116270476749C7
:1058400044390860704730B500210022002400234D
:105850005C4D6D6805F00C0121B1042905D00829C3
:1058600023D105E05E4D056022E05D4D05601FE03F
:10587000544D6D6805F47012524D6D6805F4803416
:10588000022505EB92421CB9564D554305600BE0CD
:105890004C4D6D6815F4003F03D0524D55430560E3
:1058A00002E04F4D5543056002E04D4D056000BFDD
:1058B00000BF444D6D6805F0F00109094A4D6B5C6D
:1058C0000568DD4045603F4D6D6805F4E061090AFB
:1058D000454D6B5C4568DD4085603A4D6D6805F46B
:1058E0006051C90A404D6B5C4568DD40C560354D6F
:1058F0006D6805F44041890B3C4D6B5CC568B5FB98
:10590000F3F5056130BD29B12E4A526902432D4B92
:105910005A6104E02B4A526982432A4B5A6170470C
:1059200029B1284A92690243264B9A6104E0254A2C
:1059300092698243234B9A61704729B1214AD26907
:105940000243204BDA6104E01E4AD26982431D4BB8
:10595000DA61704729B11B4AD2680243194BDA60F9
:1059600004E0184AD2688243164BDA60704729B1C6
:10597000144A12690243134B1A6104E0114A126976
:105980008243104B1A6170471449403908607047D0
:105990000F49C86470470B49C87170470948406A8D
:1059A00040F0807007494862704701460020054A70
:1059B00092680A4201D0012000E0002070470149AE
:1059C00088727047001002400000FFF8FFFFF6FEEB
:1059D00000004242D800424220100240800442426D
:1059E00000127A0000093D00C9040020D9040020FB
:1059F00010B50446FE48844208D10121C014FFF7C7
:105A0000A9FF0021E014FFF7A5FFC4E0B4F1804F27
:105A100008D101210846FFF7AAFF00210120FFF766
:105A2000A6FFB8E0F348844208D101210220FFF725
:105A30009EFF00210220FFF79AFFACE0EE4884426F
:105A400008D101210420FFF792FF00210420FFF775
:105A50008EFFA0E0E948844208D101210820FFF729
:105A600086FF00210820FFF782FF94E0E44884428B
:105A700008D101211020FFF77AFF00211020FFF745
:105A800076FF88E0DF48844208D101212020FFF71B
:105A90006EFF00212020FFF76AFF7CE0DA48844295
:105AA00008D101214014FFF755FF00216014FFF7D2
:105AB00051FF70E0D548844209D10121C804FFF7A5
:105AC00049FF00214FF40020FFF744FF63E0D04876
:105AD000844209D101210805FFF73CFF00214FF462
